S01700006275696C642F697269732F6D61696E2E7372656343
S11300000C9469000C9488000C9488000C9488006B
S11300100C9488000C9488000C9488000C9488003C
S11300200C9488000C9488000C9488000C9488002C
S11300300C9488000C94D60F0C9488000C9419101E
S11300400C9439110C94FC100C9435110C94371148
S11300500C9476110C9488000C9488000C948800FD
S11300600C9441100C94B7110C9488000C940A124F
S11300700C9488000C9488000C9488000C946812EA
S11300800C9462120C9464120C9466120C94721206
S11300900C9458120C9488000C9460120C948800F0
S11300A00C9488000C9488000C9488000C948800AC
S11300B00C9488000C9488000C9488000C9488009C
S11300C00C9488000C9488000C94880000020E069E
S11300D00C0411241FBECFEFD1E2DEBFCDBF13E06D
S11300E0A0E0B2E0E0E4F4E300E00BBF02C007905C
S11300F00D92AA37B107D9F726E0AAE7B3E001C009
S11301001D92AA3DB207E1F70E94A6120C94121A9E
S11301100C9400002F980895289A08950DB407FEB2
S1130120FDCF8EB50895982F0DB407FEFDCF8EB583
S11301309EBD0895289808958627082E8295807F6D
S11301408025092E982F82958F70082686959827EA
S11301508927880F880F880F802508958091580576
S11301608F3F69F0E82FF0E0E956FC4F90819093BF
S113017058059F3F11F49093A2069FEF9083089532
S11301808091B0008093B0008091B60081FDFCCFD7
S11301900895982F80E02BE1992311F0611101C09B
S11301A0089560FD892797FF04C0990F92276695EB
S11301B0F3CF990FFCCFAF92BF92CF92DF92EF9221
S11301C0FF921F93CF93DF93EA017B016C015A01E5
S11301D080E1A80EB11C6991F70181917F010E9411
S11301E0C900182F6F85F70187850E94C900182759
S11301F0F60111936F01CA15DB0569F7DF91CF9101
S11302001F91FF90EF90DF90CF90BF90AF90089533
S1130210CF92DF92EF92FF920F931F93CF93DF93CE
S1130220EA017B018C016A0180E2C80ED11C69914C
S1130230F70181917F010E94C900F80181938F0128
S1130240CC15DD05A1F7DF91CF911F910F91FF90A0
S1130250EF90DF90CF900895CF92DF92EF92FF92CC
S11302600F931F93CF93DF9300D0CDB7DEB78B01ED
S11302707C016B0180E4C80ED11CF8018081898364
S113028081818A8340E150E070E060E0CE01019614
S11302900E940816F70161937F010E5F1F4F0C1532
S11302A01D0559F70F900F90DF91CF911F910F917A
S11302B0FF90EF90DF90CF900895FC01DB019B014C
S11302C0205F3F4F80E0A217B30771F4DA019A016F
S11302D0205F3F4F9D91890FA217B307D9F7808301
S11302E081838283838308959D91890FECCFCF937B
S11302F0DF93C82FD62F0E949A00C06CCEBD8D2FDD
S11303000E9493000E948E00DF91CF910C948C0088
S1130310CF93C82F0E949A00C068CEBD80E00E948F
S113032093000E948E00C82F0E948C008C2FCF91C6
S113033008958CB58F7B8CBD229A2398219A209A9C
S11303408CB580618CBD8CB58F778CBD8CB5877F67
S11303508CBD8CB58B7F8CBD8CB580648CBD8DB50C
S113036081608DBD8CB58C7F8CBD08958FB7F8945A
S11303700895CF93C82F0E94B601C093C600E0EC45
S1130380F0E09081906490838FBFCF910895CF93D4
S1130390C82F8091D40381110CC08C2F0E94B90105
S11303A08091C00086FFFCCF8C2FCC0F990BCF918E
S11303B008958FEF9FEFFBCFCF93C82F0E94B60114
S11303C0EC2FF0E0E956FC4F90819F3F21F4E0913F
S11303D0A206CE1309C08FBF85E090E010C0F0E004
S11303E0E956FC4FC08306C0909158059F3FB9F76A
S11303F0C0935805C093A2068FBF90E080E0CF91D0
S113040008958091D003823031F481E08093D00349
S113041084E00C94DC0108959C0190936205809320
S1130420610584E0232B09F081E08093D00384E00C
S11304300C94DC010F931F93CF93DF9300D000D073
S1130440CDB7DEB70E94B6019091B20040919303FC
S1130450509194036091950370919603B99B0CC0DD
S11304602091B3009091B2004F5F5F4F6F4F7F4F69
S1130470420F511D611D711D8A019B01090F111D40
S1130480211D311D09831A832B833C838FBF69810E
S11304907A818B819C810F900F900F900F90DF9148
S11304A0CF911F910F9108950F931F93CF93DF93D3
S11304B000D000D000D0CDB7DEB70E94B6018D8346
S11304C09091B3002091B20087B3291729F0982F97
S11304D092709E8381FF0DC08D818FBF26960FB6CB
S11304E0F894DEBF0FBECDBFDF91CF911F910F9166
S11304F008958091D50381113DC046EE9FEF940F7E
S11305008091B60083FDFCCF8091B200981301C0A6
S1130510942F4091930350919403609195037091AB
S113052096038A019B010F5F1F4F2F4F3F4F090F07
S1130530111D211D311D041715072607370710F457
S1130540942F90958091B60083FDFCCF9093B300D7
S11305508D818FBF9E81992309F280E026960FB684
S1130560F894DEBF0FBECDBFDF91CF911F910F91E5
S11305700C94DC010E941A0269837A838B839C8326
S113058040918703509188036091890370918A0395
S113059000915D0510915E0520915F053091600525
S11305A089819A81AB81BC81841B950BA60BB70B07
S11305B080179107A207B30730F01092D50346EED7
S11305C091E09E839BCF400F511F621F731F809148
S11305D0930390919403A0919503B0919603481BC3
S11305E0590B6A0B7B0B473E51056105710508F0F9
S11305F084CF423008F082CF42E080CF0F931F9324
S1130600CF93DF9300D000D0CDB7DEB70E94B60100
S11306104091D5045091D6046091D7047091D804C8
S11306202091840030918500B09B08C04F5F5F4FDC
S11306306F4F7F4F20918400309185008FBFBA01A6
S113064055274427C901B0E0A0E08A019B01082B8B
S1130650192B2A2B3B2BC901B8010F900F900F9037
S11306600F90DF91CF911F910F9108950E94B601D1
S113067020910802309109028FBFC9010895CF93D8
S1130680DF93FC018181928185FF0EC087749C7C7D
S11306908134984849F4C681D7810E9436039C016D
S11306A081E02C173D0709F080E0DF91CF91089598
S11306B00E94B601982F809107029FBF08950E945F
S11306C0B6019091E4049F5F9093E4048FBF089572
S11306D00F931F93CF93DF93D82FC92F0E94B60196
S11306E00091E2041091E30498012F5E3E4F309391
S11306F0E3042093E2048FBF86E00E94DC01C8017A
S11307006D2F7C2F0E94FD148A5D9E4FDF91CF9147
S11307101F910F9108950F931F93CF93DF938C0133
S1130720EB010E94B60120918400309185002D5F79
S11307303F4FA901401B510B4C175D0718F498015A
S11307402C0F3D1F2115310511F421E030E021501B
S11307503109309389002093880092E096BB9091F0
S11307606F00926090936F008FBFDF91CF911F91C4
S11307700F910895BC0181E08093E3038093DD042D
S113078080918400909185000C948B03CF930E94F8
S1130790B601C82F80917A03823051F5809101020D
S11307A0811126C0809103028F3FE9F0E82FF0E029
S11307B0E052FC4F9081909303029F3F11F4909379
S11307C002029FEF90838093010281E080937A0379
S11307D089E00E94DC018CB58F7B8CBDCFBF90E09B
S11307E080E0CF9108958093010210927A03F3CFB1
S11307F0CFBF81E090E0F5CFCF930E94B601C82F20
S113080080917A0381110DC081E080937A03109264
S1130810010289E00E94DC01CFBF90E080E0CF912B
S113082008958091E0038F3F21F4E0910202E111E9
S113083008C085E090E00FC0F0E0E052FC4F108269
S113084006C0809103028F3FB9F710920302109201
S1130850020290E080E0CFBFE2CFCF930E94B601C6
S113086090910102911108C090917A03923021F481
S11308708FBF81E0CF9108958FBF0E94B601C82F2A
S113088080917A03811109C082E080937A031092E7
S113089001020E949901CFBFECCFCFBF0E94FC039D
S11308A080E0E8CF3F924F925F926F927F928F9257
S11308B09F92AF92BF92CF92DF92EF92FF920F93EB
S11308C01F93CF93DF93CDB7DEB72A970FB6F89473
S11308D0DEBF0FBECDBF89879A8780919106853090
S11308E0D1F085E090E02A960FB6F894DEBF0FBEF3
S11308F0CDBFDF91CF911F910F91FF90EF90DF90CB
S1130900CF90BF90AF909F908F907F906F905F90AB
S11309104F903F90089550907E0380914F05582A40
S113092001F70E942D048823E1F2E984FA8423E686
S1130930E20EF11CD7018C9160E082FF06C0E985CC
S1130940FA85E45AFF4F61816F70809148048617DD
S113095031F060934804606885E00E947701E9857E
S1130960FA858181928187749C7C81349848B9F49A
S113097086E00E9488018F712091DB039091CD0362
S1130980290F3327331F43E0359527954A95E1F71F
S11309908217130621F01CF00E94C603A2CF69E05F
S11309A082E00E9477010E94FE024B015C01A9854E
S11309B0BA857C90F701808184FF10C09AEF492E9C
S11309C0470C24E0522E81E00E9488018F71893007
S11309D049F066E082E00E947701DECF8EEF482E78
S11309E0470CF1CFC984DA84FFEFCF1ADF0A0E94E3
S11309F0B6012F9A00918400109185008FBF0E9448
S1130A008A000E949A0080E68EBD872D0E94930082
S1130A10342C3601F30180812FEF621A720A0E948E
S1130A2093003A943110F6CF4A94842D90E00196C5
S1130A30C80ED91E0E551F4F08191909012E000C96
S1130A40220B330B34014501600E711E821E931E6E
S1130A505520D9F1D6018D919D910D90BC91A02D79
S1130A60BC01CD010E943C1569837A838B839C83EE
S1130A7089819A81AB81BC8186199709A809B90932
S1130A808D839E83AF83B887BC01CD010E943C1542
S1130A90D6016D937D938D939C9313971C2D5601D2
S1130AA0F50181915F010E9493008A2D811B5812E8
S1130AB0F7CF69817A818B819C810E943C15D60194
S1130AC06D937D938D939C9313970E948E000E9447
S1130AD08C0066E082E00E947701F70180818260E9
S1130AE0808389859A85815A9F4FDC016D927D921E
S1130AF08D929C92139786E08093910684E0809374
S1130B007E0390E080E0EFCE2F923F924F925F926F
S1130B106F927F928F929F92AF92BF92CF92DF9209
S1130B20EF92FF920F931F93CF93DF93A0E88A2E47
S1130B30B3E0CB2EC5E0DC2ED2E0BD2E18E0312E82
S1130B4004E0A02E80E2982E8091DD048230F9F436
S1130B501092DD048091E303823009F4D3C0833022
S1130B6009F4D7C0813099F4809184009091850074
S1130B700091D1041091D204081B190B8091D10368
S1130B80803809F078C01092D1030E94010280914C
S1130B904F05882309F4E4C080919106813009F45B
S1130BA0DFC00E942D04882309F4DAC00E94B60134
S1130BB0C091DE03D091DF038FBF10924F058FE009
S1130BC00E948801182F80917E038B7F833021F44B
S1130BD0D092910630927E0312FFB1C080917E03C1
S1130BE0863009F0A9C010927E03143009F0D6C0F3
S1130BF086E00E9488018F719091CD03292F26955C
S1130C002695921B980F9093CD0320918B033091DE
S1130C108C03F901ED59FF4F90819B7F986090837D
S1130C20245A3F4FD90112968C930E94FE02462FFC
S1130C30572FBC0180918B0390918C03FC01ED59DB
S1130C40FF4F208122602083815A9F4F9E012750AD
S1130C503109241B350B2901330F66087708440D2D
S1130C60551D661D771DFC01408351836283738388
S1130C70D0927E0364C087FF03C010161106F4F0FF
S1130C808091920381111AC0E090CE03F090CF03BB
S1130C90C7010E945204EC01892B91F4F701ED592C
S1130CA0FF4F80818E7F808381E080939203F09256
S1130CB0A406E092A306C092D10369CFC5E0D0E0B8
S1130CC08091D103982F9F77913059F48078826076
S1130CD08093D10380E198E00E9468030E94BA03E4
S1130CE056CF87FF0CC0101611064CF48092D10326
S1130CF0C8010E94BA03CE010E940C0248CF109290
S1130D00D103F9CF109292031092D10390E080E0C6
S1130D10F3CF90919106923029F4809391060E942A
S1130D208D0935CF80917E038630C9F710927E03FA
S1130D3081E00E948801F3CF882309F456CF13FF82
S1130D400FC080917E03843009F04DC0D09291068B
S1130D5010927E0380919203833051F51092920396
S1130D6080917E03811153C080919106853091F466
S1130D7080914F0590919203892B9091D103892BF7
S1130D809091DD04892B31F40E94010280917E034D
S1130D90811178C287E00E94DC0174C2E0918B0368
S1130DA0F0918C03ED59FF4F8081857F808360CF64
S1130DB0E091A306F091A4068181928185FF0AC087
S1130DC087749C7C8134984829F4868197810196A4
S1130DD009F08FC2109292031092D10390E080E048
S1130DE00E940C02BDCF853009F0BACF86E00E9484
S1130DF088019091DB03292F26952695921B8F71EC
S1130E00980F9093DB0389E080937E03A9CF893008
S1130E1009F0B5C10E949A009EBC0DB407FEFDCF37
S1130E208EB51EBC0DB407FEFDCF8EB59DEF980F99
S1130E309B3508F0A3C01EBCE0908B03F0908C039C
S1130E40D7018D937D01FEEF5F2E580EB6E0452C41
S1130E50B51510F4E7E04E2EE701242C612C712C1B
S1130E6080E00E949300682F88832196C3010E942A
S1130E709C003C012A942110F3CFCFEFC40DD0E0A5
S1130E802196CE0DDF1DE0918B03F0918C038181BF
S1130E90928187709927029709F063C08091920329
S1130EA0823009F069C0152D1419115080E01F3FDC
S1130EB009F067C00E949300682FC3010E949C0040
S1130EC0D82FC92F80E00E949300682F8D2F9C2F6C
S1130ED00E949C00EC010E948E00E0918B03F09133
S1130EE08C03E45AFF4F80830E948C00D0929106B9
S1130EF010927E03209709F0C0C100918B031091DA
S1130F008C0320919203F801818192818770992743
S1130F10029709F03FC0223009F0B4C0E091A30663
S1130F20F091A406D80113969C9183819813AAC0CA
S1130F3080916F008D7F80936F001092DD04E091AB
S1130F40A306F091A406ED59FF4F80818160808350
S1130F50109292031092D10390E080E00E940C0260
S1130F6091C00E94B60191E020914905233008F018
S1130F7090E08FBF911197CF0E948E00C1E0D0E026
S1130F80B3CF0E949300682F8993C3010E949C00F1
S1130F903C018BCF211117C0C8010E943F03882355
S1130FA091F0D0926904B0926A0410926B04F80133
S1130FB0838180936C0489E694E00E945204892B17
S1130FC011F4C0929203E0908400F0908500C8016F
S1130FD00E943F03882321F0F4EEEF1AFCEFFF0A8E
S1130FE0F092D204E092D104809184009091850023
S1130FF09701281B390BC9011816190664F42091AE
S1131000D103211149C02091DD04211104C00E94A3
S1131010BA038092D103D80118968D919C91509176
S1131020A106E52FF0E04091C506DF01AA0FBB1F22
S1131030A853B94F2D913C918217930789F5ED552B
S1131040FC4F8081841771F04F5F4093C506408345
S113105060E88091C506982F9F779F3709F459C09F
S11310605091A106D80113969C91E52FF0E0DF0181
S1131070A357BC4F8C91E65BFA4F80FF5DC0808123
S113108098135CC010938C0300938B0380917E03B0
S1131090883009F0F2C0A1C020682093D103BBCFEF
S11310A0A8ECB6E0E3EAF3E070E060E05C2F2D9199
S11310B03D91F1908217930759F4C093A106F41659
S11310C089F24F5F4093C506CD55DC4F4883C0CFAE
S11310D0242F2F19621710F47C2F622F2196C5300C
S11310E0D10521F77093A106272F30E0F901EE0F07
S11310F0FF1FE853F94F918380834F5F4093C506E8
S1131100F901ED55FC4F408323573C4FF901108200
S1131110A0CF6F3708F4A4CFE3EAF3E0282F2078B8
S113112091919F67891719F0DF0111972C9333E090
S1131130E83AF307A9F794CF81608C9390830E94D7
S1131140B601C82F809149058330B8F4E0915B055E
S1131150E80FE33008F0E350F0E0EE0FFF1FEF5725
S1131160FC4FF080D181118300838F5F8093490508
S113117085E00E94DC010F2D1D2FCFBF83CF9FEF91
S1131180980F933008F09AC09EEF980F923058F55C
S1131190C0919106C13039F59091DD04911123C0BD
S11311A00E948A00C092E303C093DD04809184000E
S11311B0909185006BE273E00E948B03B0929106DC
S11311C080917E03813009F050C090919106933054
S11311D009F053C02F9A8093910610927E0383E006
S11311E00E94DC014AC0833019F580919106833056
S11311F039F70E942D048823D9F08FE00E948801DA
S11312008091810080648093810096BA80916F0000
S1131210806280936F006091A903606688E00E94F9
S1131220770166E082E00E947701A0929106C8CF20
S113123080917E038150823018F68091910685302A
S113124009F0BECF0E942D04882309F4B9CF63E0CE
S113125082E00E94770180916F008F7D80936F0000
S113126010924F05C0929106ABCF823009F00ECF99
S113127080919106833009F4B0CF80917E03882356
S113128009F472CD0E94B6019091E404913061F5A5
S11312901092E4048FBFDF91CF911F910F91FF90C3
S11312A0EF90DF90CF90BF90AF909F908F907F9002
S11312B06F905F904F903F902F900895873009F082
S11312C0E5CE0E942D04882309F4E0CE6091A903A1
S11312D0606688E00E94770180919106853009F06C
S11312E07CCFA0929106D2CE91E09093E4048FBF7C
S11312F02BCC8091DD0481116DCDB092E30381E0AC
S11313008093DD04809184009091850069E973E005
S11313100E948B03B092920323CD0E94B601909158
S1131320E404992329F090689093E4048FBF08950E
S113133091E09093E4048FBF0C9484050E94B6015D
S11313409091E40491509093E404903811F08FBF8D
S1131350089591E09093E4048FBF0C948405CF9397
S1131360DF93EC018FE38A8780917D038F5F809305
S11313707D038B830E945F038091D003811114C08D
S1131380D093E104C093E00481E08093D0031092F1
S1131390DE0484E00E94DC01D0E0C0E00E949E09EB
S11313A0CE01DF91CF910895C5E0D0E0F7CFCF9380
S11313B00E94B601C82F80917B03823039F5809159
S11313C00402811123C0809106028F3FD1F0E82FDF
S11313D0F0E0E453FC4F9081909306029F3F11F498
S11313E0909305029FEF90838093040281E08093A1
S11313F07B0382E00E94DC01CFBF90E080E0CF91CC
S113140008958093040210927B03F6CFCFBF81E04E
S113141090E0F5CFFF920F931F93CF93DF93F82EB5
S11314208B01EA01213508F05FC049815A81CA0164
S113143087749C7C8134984839F040735527416403
S11314405868498388E88A83235F28830E94360387
S1131450998788870E9458038C831D82FB860E839C
S11314601F830E94B60190917B03911115C092E0F5
S113147090937B03109204028FBFCE010E94AF09A8
S1131480EC01892B11F00E94D709CE01DF91CF9195
S11314901F910F91FF9008958FBFD093CB03C093FA
S11314A0CA030E94B601182F80917B0381110CC0DE
S11314B081E080937B031092040282E00E94DC01AD
S11314C01FBFD0E0C0E0E1CF8091CC038F3F21F477
S11314D0E0910502E1110BC0C5E0D0E012C0F0E0DC
S11314E0E453FC4F108209C0C6E0D0E0CECF809117
S11314F006028F3FA1F71092060210920502D0E077
S1131500C0E01FBFC2CF10920002E091D304F0915B
S1131510D404309721F080915C0580FF04C081E001
S113152080930002089520812D5066817781AF0158
S113153083850E940A0A892B19F08BE00C94DC0144
S11315400895CF93DF939C0180910002811112C012
S1131550C091D304D091D404C217D30759F4109284
S1131560D4041092D3040E94830AC55ED44011F4BB
S113157010927C03DF91CF9108952F923F924F9266
S11315805F926F927F928F929F92AF92BF92CF920F
S1131590DF92EF92FF920F931F93CF93DF93CDB718
S11315A0DEB7CC58D1090FB6F894DEBF0FBECDBF5D
S11315B0462F572FBC018091A00681FF56C1009190
S11315C09406109195062091960630919706C09046
S11315D09806D0909906E0909A06F0909B06401BDE
S11315E0510B620B730B4C155D056E057F0508F4FA
S11315F03CC180FF21C18D7F8093A0068091CD04E2
S11316009091CE0401969093CE048093CD042091C2
S11316107C0321112AC189838FE0EEE1F2E0DE012F
S1131620129601900D928A95E1F70E94FE02CB0179
S11316300E94FD158E010B581F4F6E0125E3C20E4B
S1131640D11C480164E0860E911C780116010E94A9
S1131650F915D8018D938D010E94F915F601819336
S11316606F018016910699F7F70180819181A2811B
S1131670B3814C015D01F3E08F229924AA24BB2499
S11316809C01AD010196A11DB11D63E08616910474
S1131690A104B10471F78DA89EA8AFA8B8AC240129
S11316A0350183E04822552466247724F82DE92D5A
S11316B0C501AFEF8A1A9A0AAA0ABA0AB3E04B160E
S11316C051046104710459F76F2F7E2F0E94ED14A9
S11316D0C757DF4F688379838A839B83C958D04077
S11316E064E473E382E291E1C757DF4F28813981D3
S11316F04A815B81C958D0400E9411159B01AC01FD
S11317000E94ED14C757DF4F288139814A815B81DC
S1131710C958D0400E9411158E010B5A1F4F480121
S1131720E0E18E0E911C502E612E712C28E0C22E09
S1131730D12C9B01AC010E94ED14CB57DF4F688381
S113174079838A839B83C558D040C757DF4F28814C
S113175039814A815B81C958D0400E941115262FD6
S11317602170722A770CF1E0CF1AD10811F7D80151
S113177050967C92F80171928F018E169F06A9F6FD
S113178049E454E0652D762DC1010E9408014AEA1E
S113179053E0B101C7010E94DB0045EA56E0652D24
S11317A0762D85E095E00E940801FE0131969701AF
S11317B061EF74E0AE014F5E5F4F4E175F0709F0B3
S11317C048C0A70161EF74E081E095E00E945D01EB
S11317D08FEF8093EB048093EC0486E08093F00415
S11317E08091D3049091D404892B01F585EE94E083
S11317F09093D4048093D30481E48093E50480918E
S11318000002882379F11092000224E345EE54E0AB
S11318106FEF7FEF86E00E940A0A892B19F181E0BD
S1131820809300021092D4041092D3048EE292E0CA
S11318300E942417129819C00C0D1D1D2E1D3F1D4A
S1131840009394061093950620939606309397067A
S1131850D5CE8191D9019D919D018927DB018D937D
S1131860BD01ABCF81E080937C0381E00E94DC0169
S1131870C457DF4F0FB6F894DEBF0FBECDBFDF9164
S1131880CF911F910F91FF90EF90DF90CF90BF9079
S1131890AF909F908F907F906F905F904F903F900C
S11318A02F9008952F923F924F925F926F927F9262
S11318B08F929F92AF92BF92CF92DF92EF92FF925C
S11318C00F931F93CF93DF93CDB7DEB7CC54D109D9
S11318D00FB6F894DEBF0FBECDBF182F8C3008F0C2
S11318E067C0E82FF0E0EC5EF54E0C9433158EE4FF
S11318F0282E82E0382E99E5C92E92E0D92E2FE5C4
S1131900422E22E0522E3E0121E1620E711C0E9401
S1131910B60190914905911184C18FBF49C080914E
S1131920A803811141C08090540590905505A09062
S11319305605B09057050E94B601C0908703D09019
S11319408803E0908903F0908A0340915D055091EB
S11319505E0560915F0570916005C40ED51EE61E9C
S1131960F71E8FBF8092540590925505A09256059C
S1131970B09257051092A8030E94B60191E090938B
S1131980D503C0928703D0928803E0928903F09232
S11319908A0380925D0590925E05A0925F05B092E5
S11319A060058FBF0E9454020E941A020E94BD0A61
S11319B0C45BDF4F0FB6F894DEBF0FBECDBFDF911F
S11319C0CF911F910F91FF90EF90DF90CF90BF9038
S11319D0AF909F908F907F906F905F904F903F90CB
S11319E02F9008950E941A022A966FAF2A972B9679
S11319F07FAF2B972C968FAF2C972D969FAF2D975B
S1131A000E94B6011092D5038FBF2091A0062270C8
S1131A1040919406509195066091960670919706B0
S1131A208091980690919906A0919A06B0919B0690
S1131A30840F951FA61FB71FAC01BD012D96CCAC1A
S1131A40DDACEEACFFAC2D974C195D096E097F0936
S1131A50F0E0E0E030E0CC24CA94DC2CEC2C0FE77E
S1131A60F02E8F2F9E2F892B79F0332309F4A0CFEA
S1131A701C141D041E041F04B4F02D966CAD7DAD22
S1131A808EAD9FAD2D9792CF222379F3F1E0E0E064
S1131A9081E090E04C155D056E057F0524F7312F3C
S1131AA06A017B01DECFC0925405D0925505E092C5
S1131AB05605F092570511E01093A8030E94B60151
S1131AC01093D5032D962CAD3DAD4EAD5FAD2D9746
S1131AD020938703309388034093890350938A03A8
S1131AE0C0925D05D0925E05E0925F05F0926005BC
S1131AF08FBF0E9454025CCF0E94B60192E0909383
S1131B007B038FBF80910402811152CF8091CA035D
S1131B109091CB030E94AF09892B09F449CF0E940D
S1131B20D7098091CA039091CB030E94A10A40CFA8
S1131B308091D0031092D003853021F58BE392E09D
S1131B400E9424170E941A026093940670939506CB
S1131B50809396069093970688EE93E0A0E0B0E019
S1131B608093980690939906A0939A06B0939B0647
S1131B708091A0068C7F82608093A00681E00E9401
S1131B80DC0116CF9AEF980F923008F411CF8093AE
S1131B90D0030ECF0E945F039091D003913079F56A
S1131BA08091DE048F5F8093DE04863040F580915F
S1131BB0D1032091DD04822B61F085E090E09093C5
S1131BC062058093610582E08093D0030E949E09A0
S1131BD0EFCE2091E0043091E1043093CF032093C1
S1131BE0CE039093D1038BED91E10E9468030E9490
S1131BF0BA03109262051092610583E0E5CF10925A
S1131C00D0030E949E090091E0041091E104D801E0
S1131C101A968C918F3309F0CBCE0E94D709C80154
S1131C2084CFE0915B05F0E0EE0FFF1FEF57FC4F10
S1131C30008111818FBFF801B0808EEF8B0D893048
S1131C4008F49DC082858F3309F0C4C085EF8B0DE5
S1131C50823008F494C0A384E680F780FFEFEF1687
S1131C60FF0609F086C0D8011496FC900E94580320
S1131C70F81285C096E0A91282C0B1E4BB127FC0FD
S1131C803F922F920E9410177801ECE0EE0EF11CA7
S1131C905801FCE1AF0EB11C0F900F904701D40125
S1131CA08D914D011F928F93DF92CF920E94101756
S1131CB00F900F900F900F908A149B0481F74801A6
S1131CC0B0E28B0E911C49E454E0B401CE01C596F8
S1131CD00E94DB00AE014B5C5F4FB701CE018B5B12
S1131CE09F4F0E945D01DE01AB5BBF4FF5019D91EB
S1131CF08191981365C0E815F905C9F7DE01D596F9
S1131D009E012F5F3F4FEA14FB0409F050C0F12CF1
S1131D10E12CFF92EF925F924F920E9410179E0166
S1131D202F5F3F4F59010F900F900F900F90D501E7
S1131D308D915D011F928F93DF92CF920E941017B5
S1131D400F900F900F900F90A614B70481F78CE4B6
S1131D5092E00E942417EF20E09489F0898180FFAB
S1131D6033C0129881FF32C0119882FF31C010989D
S1131D7006C00E943603E816F90609F474CF0E94DF
S1131D80B60190915B05E92FF0E0EE0FFF1FEF57CE
S1131D90FC4F118300839F5F933048F590935B055C
S1131DA0909149059150909349058FBFB0CDF701AB
S1131DB081917F019D918927F90181939F01A3CF8F
S1131DC0EE24EA94FE2CA5CF129ACCCF119ACDCF53
S1131DD0109AD5CFE680F7800E943603E816F906FC
S1131DE019F0EF20E09459F60E945803C8CF1092DE
S1131DF05B05D6CF0E94B601182F6091D70370916E
S1131E00D8038091D9039091DA032EE433E840E0BB
S1131E1050E00E944E1529013A0176946794579434
S1131E20479400E20E947B1549015A017301620143
S1131E30C80CD91CEA1CFB1CF7FE07C0E894F7F891
S1131E402FEFC21AD20AE20AF20AC092D703D09242
S1131E50D803E092D903F092DA031FBF0E94B601BF
S1131E60D092E304C092E20458CD0E94B6011092CD
S1131E70DC041092DB041092900610928F061092EC
S1131E80800310927F031092D0041092CF0445CDAA
S1131E900E94B601182F82E080937A030E94990170
S1131EA01FBF80910102811183CD80919106811120
S1131EB03AC00EEF11E0C801019701960197E1F7CE
S1131EC016980E948A0086E090E001970196019797
S1131ED0E1F7169A60E083E00E94770168E082E00F
S1131EE00E947701C801019701960197E1F76DE41B
S1131EF08EE00E94770167EC89E00E94770160E838
S1131F0085E00E947701109248048AE18093A90336
S1131F106AE788E00E9477012F9A81E08093910616
S1131F200E94C60345CD0E948D0942CD80915C0577
S1131F30882309F43DCD30917C03E3EDF4E090E097
S1131F4021E0422F482369F040815181118210829F
S1131F50622F60958623911104C0455E544009F4B4
S1131F6030E0220F9F5F3296983059F780935C05DA
S1131F7030937C031DCD10910002E12FF0E0EE0FB1
S1131F80FF1FED52FB4FE080F180118210820E940E
S1131F90830A11110DCD85EEE81684E0F80609F0E8
S1131FA007CD10927C0304CD8FBF08951F920F922A
S1131FB00FB60F9211240BB60F922F933F934F93AA
S1131FC05F936F937F938F939F93AF93BF93EF939D
S1131FD0FF930E94C0008091B30090E0019640916D
S1131FE09303509194036091950370919603480F65
S1131FF0591F611D711D4093930350939403609383
S113200095037093960378940E945402FF91EF9184
S1132010BF91AF919F918F917F916F915F914F91FC
S11320203F912F910F900BBE0F900FBE0F901F90FA
S113203018951F920F920FB60F9211240BB60F92A0
S11320402F933F934F935F936F937F938F939F93BC
S1132050AF93BF93EF93FF930E94C000FF91EF9162
S1132060BF91AF919F918F917F916F915F914F91AC
S11320703F912F910F900BBE0F900FBE0F901F90AA
S113208018950F920FB60F921F921124EF92EBB690
S1132090EF92FF920F931F932F933F934F935F936E
S11320A06F937F938F939F93AF93BF93CF93DF935C
S11320B0EF93FF932EB58091DB049091DC0400979D
S11320C041F04091CF045091D004840F951FFC013E
S11320D020838091CF049091D00401969093D004F2
S11320E08093CF048CB58F778CBDA091CF04B09131
S11320F0D00420917F0330918003A217B30708F026
S113210069C040918F0650919006C091DB04D09134
S1132110DC04BD01665F7F4F6217730708F49B01FF
S1132120BD017901F1E0EF1AF1086E157F05A0F108
S113213090E080E0EA16FB0628F0CD0180959095AA
S1132140820F931F8A0F9B1F2CB520682CBD41154D
S11321505105F1F1480F591FFA0120812EBD9093CA
S1132160D0048093CF04FF91EF91DF91CF91BF9181
S1132170AF919F918F917F916F915F914F913F911B
S11321802F911F910F91FF90EF90EBBEEF901F9056
S11321900F900FBE0F90189541155105A1F0CA017B
S11321A0860F971FFC0180818EBD0DB407FEFDCF05
S11321B09EB5209729F08E01060F171FF801908312
S11321C06F5F7F4FB2CF1EBC0DB407FEFDCFF0CFC3
S11321D01EBCC5CF1092DC041092DB041092900652
S11321E010928F061092800310927F031092D004F5
S11321F01092CF048EB5B7CF78941F920F920FB67A
S11322000F9211240BB60F922F933F934F935F932A
S11322106F937F938F939F93AF93BF93EF93FF93AA
S113222080916F008D7F80936F0078940E94B60137
S11322309091DD04913019F492E09093DD048FBF06
S11322400E948D09FF91EF91BF91AF919F918F9162
S11322507F916F915F914F913F912F910F900BBEA2
S11322600F900FBE0F901F9018957894189578943E
S1132270189578941F920F920FB60F9211240BB6F3
S11322800F922F933F934F935F936F937F938F930B
S11322909F93AF93BF93CF93DF93EF93FF93E6E8BE
S11322A0F0E080819181C081D1810E94B601D093F8
S11322B0DF03C093DE0391E090934F058FBF0E942C
S11322C08D09FF91EF91DF91CF91BF91AF919F91D4
S11322D08F917F916F915F914F913F912F910F90CB
S11322E00BBE0F900FBE0F901F90189578941F92FD
S11322F00F920FB60F9211240BB60F922F933F93A8
S11323004F935F936F937F938F939F93AF93BF93F9
S1132310EF93FF930E94B6014091D5045091D604E7
S11323206091D7047091D8044F5F5F4F6F4F7F4F18
S11323304093D5045093D6046093D7047093D80483
S11323408FBFFF91EF91BF91AF919F918F917F913B
S11323506F915F914F913F912F910F900BBE0F9012
S11323600FBE0F901F90189590E080E008951F9283
S11323701FB61F9211242F932BB72F933F934F9384
S11323806F937F938F939F93EF93FF938091C000FC
S113239087FF31C04091C6008091D9049091DA043E
S11323A0009749F12091920630919306B9016F5F2D
S11323B07F4F7093930660939206820F931FFC01E4
S11323C0408320919206309193068091C6069091A5
S11323D0C7062817390778F01092DA041092D90446
S11323E08091DF04833039F08091C1008F7780932E
S11323F0C1001092DF04FF91EF919F918F917F9123
S11324006F914F913F912F912BBF2F911F901FBE22
S11324101F90189578941F920F920FB60F92112463
S11324200BB60F922F933F934F935F936F937F93CA
S11324308F939F93AF93BF93EF93FF938091D203B6
S11324409091D3032091520530915305821793073D
S113245018F5E091E103F091E2039C012F5F3F4FF7
S11324603093D3032093D203E80FF91F80810E9495
S1132470B901FF91EF91BF91AF919F918F917F919E
S11324806F915F914F913F912F910F900BBE0F90E1
S11324900FBE0F901F9018951092E2031092E10363
S11324A01092D4038091C1008F7B8093C100E1CF4F
S11324B08F938091C80087FD8091CE008F911895ED
S11324C07894189578941895789418957894189524
S11324D078948F939F9380919600909197009F9109
S11324E08F91189578941F920F920FB60F92112422
S11324F00BB60F922F933F934F935F936F937F93FA
S11325008F939F93AF93BF93EF93FF930E94B60172
S11325102091DC033091DD032F5F3F4F3093DD03C7
S11325202093DC038FBFFF91EF91BF91AF919F91F7
S11325308F917F916F915F914F913F912F910F9068
S11325400BBE0F900FBE0F901F90189500D000D0B7
S113255000D0CDB7DEB70E94B6018E8314BE0FB68D
S1132560F894A8958091600088618093600010922F
S113257060000FBE4CE050E06FEF70E087E993E03D
S11325800E9409178FEF809358058093A2065698EE
S11325905E9854985C9880916F008F7D80936F0053
S11325A0209A0E948C00279A0E948A000E9A169AFA
S11325B084EE93E090938C0380938B031092DB035F
S11325C08AE58093CD0381E08093810080E280934B
S11325D0B60083E08093B10020918400309185009F
S11325E08AE740918400509185004217530710F404
S11325F0815011F09A01F5CF9091B2008091B20010
S11326009817E1F380918400909185003091B20095
S11326102091B2003217E1F32091840030918500BB
S1132620205F3F4F281B390B75E0369527957A9527
S1132630E1F730935A05209359051092B100109296
S113264081001092B6001092B20010928500109290
S113265084008FEF87BB86BB8091B6008571E1F75C
S11326600A9A099A089A129A119A109A18B88FEF2E
S113267087B90C9814981092950010929400809148
S1132680710081608093710090919100987F9260B5
S113269090939100109285001092840080916F00B5
S11326A0816080936F0090918100987F92609093F5
S11326B081000E94AE008D838093D6038F3F09F082
S11326C0E5C08AE092E09093D5068093D40602E0B8
S11326D016E08091590590915A05B0E0A0E09C0164
S11326E0AD018CE0220F331F441F551F8A95D1F78B
S11326F0C12C91EED92EE12CF12CCA01B901A7010C
S113270096010E941115215031092093C400309381
S1132710C5000093C0001093C2001092C1008091C4
S1132720590590915A05B0E0A0E09C01AD016CE020
S1132730220F331F441F551F6A95D1F729833A830B
S11327404B835C83CA01B901A70196010E9411154C
S1132750215031092093CC003093CD000093C80060
S11327601093CA001092C90084E490E0909351053C
S1132770809350058091C1008F7B8093C10080912C
S1132780C1008F778093C1001092DF041092D403AC
S11327908091C10088608093C1008091C1008061F4
S11327A08093C1008091C10080688093C1003D8105
S11327B03093E0030E94FC03809118029091190267
S11327C0AC014F5F5F4F70E060E04093D7035093DC
S11327D0D8036093D9037093DA0323E635E030938A
S11327E082032093810327EC35E030938403209304
S11327F083032BE236E0309386032093850382958E
S1132800807F80937D034D814093CC032FEF3FEF76
S11328103093C9062093C8063093CB062093CA068A
S11328203093CD062093CC063093CF062093CE066A
S11328303093D1062093D0068091B60080628093B5
S1132840B6008091B60081FDFCCF82E08093B00099
S11328508091B60080FDFCCF83E08093B10080912D
S1132860B60083FDFCCF86EE8093B30080917000A8
S11328708260809370000E9454020E94AE00809394
S1132880D6038F3F39F00E94520CF7CF8D810E94FE
S1132890520C0FCF5E815FBF7894809118029091A3
S11328A01902892BC9F186EB92E09A83898305E7A3
S11328B012E068E373E089E494E00E942C01B8011B
S11328C08AEA93E00E942C0169817A8185EA96E084
S11328D00E942C010E945F038091D00390917E039B
S11328E0892B41F4809191068130F9F48091DD04C3
S11328F08823E9F00E949E090E94B60189830E9400
S1132900AE008093D6038F3FD9F039813FBF8091C9
S1132910D6030E94520CF0CF25E732E03A83298394
S113292006EB12E067EF72E0C6CF853019F383E05F
S113293080937E030E948D0985E08093D003DACFD3
S113294080917000837091F08091B6008A71E1F7F4
S11329508091B3009091B200891B8C3028F0809153
S1132960B20023E0853F18F022E001C025E0E091A9
S11329706E00E670F1F480916F008E72D9F4E091EC
S11329807100EE72B1F40CB407FC14C08091C10064
S1132990887181F4E091C900E87159F48091BC0018
S11329A082FD08C080917A00E5E087FF03C0E1E082
S11329B001C0E0E093B72E1708F4E22FF0E0E453EF
S11329C0FF4FE491907FE92BE160E3BF7894889511
S11329D0F89483B78E7F83BF92CFDB018F939F934D
S11329E00E944315BF91AF91A29F800D911DA39F9B
S11329F0900DB29F900D11240895AA1BBB1B51E1A9
S1132A0007C0AA1FBB1FA617B70710F0A61BB70B5A
S1132A10881F991F5A95A9F780959095BC01CD01FF
S1132A200895A1E21A2EAA1BBB1BFD010DC0AA1F0B
S1132A30BB1FEE1FFF1FA217B307E407F50720F023
S1132A40A21BB30BE40BF50B661F771F881F991F9E
S1132A501A9469F760957095809590959B01AC01E7
S1132A60BD01CF010895EE0FFF1F0024001C0BBE13
S1132A700790F691E02D099469279627692778270E
S1132A808727782708950E949615A59F900DB49FD7
S1132A90900DA49F800D911D11240895E894DF9357
S1132AA0CF93FC01DB010E9496157F936F93E9019C
S1132AB09A01AC01BF93AF933F932F93DF010E9420
S1132AC0961526F46C1B7D0B820B930B9E01EB0178
S1132AD0FC010E94A515AF91BF912F913F910E94D7
S1132AE0A515BE01CF01F9012F913F91CF91DF913F
S1132AF0089597FD1094002E083098F00850232F65
S1132B00342F452F562F672F782F892F912DF4CFEF
S1132B101594979587957795679557954795379524
S1132B2027950A95AAF71124002D0895A29FB001B4
S1132B30B39FC001A39F700D811D1124911DB29FED
S1132B40700D811D1124911D08950E949615460F44
S1132B50571FC81FD91F08F4319608958F929F926A
S1132B60AF92BF92CF92DF92EF92FF92CF93DF9317
S1132B70EC01688179818A819B81611571058105E8
S1132B80910521F464E279ED8BE597E02DE133EFD3
S1132B9041E050E00E94EB1949015A019B01AC014C
S1132BA0A7EAB1E40E9443156B017C01ACEEB4EFDB
S1132BB0A50194010E940D1ADC01CB018C0D9D1D11
S1132BC0AE1DBF1DB7FF03C00197A109B04888839C
S1132BD09983AA83BB839F77DF91CF91FF90EF9076
S1132BE0DF90CF90BF90AF909F908F9008950C94FA
S1132BF0AE158AE192E00C94AE15B0E0A0E08093AB
S1132C001A0290931B02A0931C02B0931D02089514
S1132C104F925F926F927F928F929F92AF92BF92E8
S1132C20CF92DF92EF92FF920F931F93CF93DF9394
S1132C305C016B017A016115710519F0FB01918347
S1132C408083E114F10449F0C7010297839728F0C7
S1132C5060E070E0CB0192C05E01E5011991812F23
S1132C6090E00E940017892BB9F71D3209F056C075
S1132C701881E501229601E0E114F10409F4B3C0DE
S1132C80F0E1EF16F10409F093C0103341F48881A8
S1132C908F7D883509F087C019812296026040E152
S1132CA0E42EF12C88248A94982CA82C5FE0B52E6D
S1132CB020E060E070E0CB0127010F2C000C6608D7
S1132CC07708E0EDE10FEA3058F03FEB310FE9EC23
S1132CD03A3128F03FE9310F3A3198F5E9EAE10F4A
S1132CE0EE151F0474F52F3FB9F086169706A80653
S1132CF0B90628F1A30192010E94ED142E2F30E0B1
S1132D0050E040E0620F731F841F951F6217730722
S1132D1084079507A0F021E01991D3CF1B3219F451
S1132D201881E501229600E0A7CF38E0E32EF12CCC
S1132D3088248A94982CA82C2FE1B22EB9CF2FEF97
S1132D40EBCFC114D10431F0222349F12197F601CC
S1132D50D183C08300FF07C09095809570956195DD
S1132D607F4F8F4F9F4F2F3F49F482E290E0909323
S1132D70D9068093D8066FEF7FEFCB01DF91CF9117
S1132D801F910F91FF90EF90DF90CF90BF90AF9085
S1132D909F908F907F906F905F904F90089501FF68
S1132DA0D9CF2297D4CF10E3E114F10409F4BDCFB5
S1132DB08AE0E816F104E9F0E0E1EE16F10409F422
S1132DC06ECFF8E0EF16F10409F4B2CF6FEF7FEFA6
S1132DD0CB0197010F2C000C440B550B0E941115CD
S1132DE049015A0165CF103309F451CF9AE0E92E15
S1132DF0F12C89E9882E982CA82C89E1B82E58CF7B
S1132E0091110C944419803219F089508550C8F7F7
S1132E100895DC0101C06D9341505040E0F70895DE
S1132E20CF93DF93CDB7DEB7AE014B5F5F4FFA01AF
S1132E3061917191AF018091D4069091D5060E9461
S1132E405017DF91CF9108950F931F93CF93DF9382
S1132E50E091D406F091D506238110E000E021FD35
S1132E600EC00FEF1FEFC801DF91CF911F910F919B
S1132E7008950995892B11F00FEF1FEFCE01EC0196
S1132E8089916091D4067091D506DB011896ED9175
S1132E90FC918111EECF8AE00995892B21F3E1CFD2
S1132EA02F923F924F925F926F927F928F929F9256
S1132EB0AF92BF92CF92DF92EF92FF920F931F9344
S1132EC0CF93DF93CDB7DEB72B970FB6F894DEBF61
S1132ED00FBECDBF7C013B018A01FC011782168223
S1132EE0838181FFCEC19AE0292ECE0101965C0137
S1132EF0F7019381F30193FD859193FF81913F0144
S1132F00882309F446C1853239F493FD859193FFF2
S1132F1081913F01853229F4B70190E00E945D1947
S1132F20E7CF912C412C512CFFE1F51538F08B3271
S1132F3009F188F4803201F1833221F157FC3AC05F
S1132F4020ED280F2A3040F556FE1FC0929C200D1C
S1132F501124922E06C08D3291F0803379F7689453
S1132F6050F8F30193FD859193FF81913F01811105
S1132F70DBCF20C0689451F8689452F8F2CF68947B
S1132F8053F8EFCF689454F8ECCF429C200D1124F1
S1132F90422E689455F8E5CF8E3229F456FCF9C0D8
S1132FA0689456F8DECF8C3619F4689457F8D9CF64
S1132FB08836B9F2982F9F7D95549330C0F08336AC
S1132FC0A1F18337C1F1833509F05BC0F801C190E9
S1132FD0D1908F01692D70E056FC02C06FEF7FEF36
S1132FE0C6010E9447194C01689457F80AC00C5F47
S1132FF01F4F2FE3298388248394912C6501E8943F
S113300057F853FC04C04814190409F018F5342C7B
S11330108114910431F5332009F46ACFB70180E2B9
S113302090E00E945D193A94F6CFF801808189837B
S11330300E5F1F4FE0CFF801C190D1908F01692D31
S113304070E056FC02C06FEF7FEFC6010E94521978
S11330504C01D5CFB70180E290E00E945D194A94FB
S1133060D2CFF60157FC859157FE81916F01B701CC
S113307090E00E945D1931103A94F1E08F1A9108A2
S1133080C7CF843619F0893609F074C0F80157FEA9
S11330906AC061917191819191918F01252D2F7653
S11330A0D22E97FF09C090958095709561957F4FBA
S11330B08F4F9F4F6894D7F82AE030E0A5010E9413
S11330C08D19C82ECA188C2C5D2CD6FE0CC0E89421
S11330D050F8C91440F4D4FE05C0D2FC03C0FD2D41
S11330E0FE7E5F2E892C54FEA4C0FE01EC0DF11D62
S11330F08081803309F096C0252D297E522E852D9E
S11331008870382E53FCA4C050FE9EC09C2C84149E
S113311018F44C0C942C981854FEA0C0B70180E30A
S113312090E00E945D1952FE09C088E790E051FECC
S113313002C088E590E0B7010E945D19C91408F443
S113314099C0CA94D12C9FEFC91AD90ACA0CDB1CA6
S1133150F60182916F01B70190E00E945D19AC14F1
S1133160BD04B1F758CF61917191072E000C880B03
S1133170990B93CFD52CE894D4F82AE030E0853726
S1133180E1F1952D997FD92E8F36A9F1F0F4883588
S113319051F1F701868197812B960FB6F894DEBF23
S11331A00FBECDBFDF91CF911F910F91FF90EF9094
S11331B0DF90CF90BF90AF909F908F907F906F9053
S11331C05F904F903F902F900895803749F0883753
S11331D001F7D4FE02C06894D2F820E130E00DC0BB
S11331E06894D4F8F6CF54FE03C0E92FE660DE2ECF
S11331F020E132E002C028E030E0F801D7FE0DC043
S113320061917191819191918F01A5010E948D1914
S1133210C82ECA18E894D7F856CF6191719190E0FE
S113322080E0F2CF52FC02C0839469CF83948394EC
S113323066CF852D867809F462CFF6CFB70180E298
S113324090E00E945D1983948414C0F3312C64CF00
S1133250342C3818841408F45FCFF8CF852D867881
S113326009F46CCF8BE251FE80E257FC8DE2B7018A
S113327090E062CFB70180E390E00E945D199A94D8
S11332805DCF8FEF9FEF88CF992788270895FC01A2
S11332900590615070400110D8F7809590958E0F7D
S11332A09F1F0895FC016150704001900110D8F7F0
S11332B0809590958E0F9F1F08950F931F93CF9322
S11332C0DF93182F092FEB018B8181FD09C01FEFBC
S11332D00FEF812F902FDF91CF911F910F910895C0
S11332E082FF14C02E813F818C819D81281739076C
S11332F03CF4E881F981CF01019699838883108396
S11333008E819F8101969F838E83E3CFE885F98523
S1133310812F0995892BA1F3DACFFA01AA27283046
S113332051F1203181F1E8946F936E7F6E5F7F4F8E
S11333308F4F9F4FAF4FB1E03ED0B4E03CD0670F0A
S1133340781F891F9A1FA11D680F791F8A1F911D5D
S1133350A11D6A0F711D811D911DA11D20D009F4AD
S113336068943F912AE0269F11243019305D3193EF
S1133370DEF6CF010895462F4770405D4193B3E0D8
S11333800FD0C9F7F6CF462F4F70405D4A3318F07F
S1133390495D31FD4052419302D0A9F7EACFB4E030
S11333A0A6959795879577956795BA95C9F70097E8
S11333B06105710508959B01AC010A2E0694579589
S11333C0479537952795BA95C9F7620F731F841FE0
S11333D0951FA01D0895052E97FB1EF400940E94CE
S11333E0021A57FD07D00E94111507FC03D04EF4B2
S11333F00C94021A50954095309521953F4F4F4FAC
S11334005F4F089590958095709561957F4F8F4F8C
S11334109F4F0895B7FF0C9443150E944315821BD8
S1133420930B0895F894FFCF8F0CF20C7C0D980D3C
S1133430CA0D770CFA0E900F350F480F960FBB0F7D
S113344001FFFFFFFFFFFF22010000000002000058
S11334500000C70100000000010001000000544109
S11334604B5320746573742031323334000043614C
S11334706E6E6F742073656E640D005374617274A4
S1133480696E672074696D65722E2E2E0D0052656B
S11334906365697665643A2000253032782000201F
S11334A02D3E20282564292E20446563727970748A
S11334B065643A2000363033344136334234333491
S11334C03633334530463241433535353739313774
S11334D03739363430353436334235343130463288
S11334E03733443832373836444338343544374434
S11334F03135373830003543313641393843313886
S113350038394243413442463941413943383034F1
S113351032434438334137323946413942344637ED
S1133520313338343636384337393343374232301F
S1133530373043333644003146353938433943381C
S11335403344383231334636313937354136323106
S113355045313033323043453443313832464443C5
S113356030374139324335353030394134383230EF
S113357039453633333038003942433731433443E5
S11335804244344232364345394535454243334457
S11335904434433737374644343241383137303393
S11335A04338444533453731374246353230304568
S10D35B03632324541323932000050
S9030000FC
