S01800006275696C642F6D6963617A2F6D61696E2E73726563E5
S11300000C9449000C949D150C949E150C949F150A
S11300100C94A0150C94A1150C94A2150C94A31582
S11300200C94DD150C9468000C9468000C94D613A1
S11300300C9446130C94D2130C9469150C94DC1292
S11300400C941E130C94DE150C9489160C94680001
S11300500C94D5160C9468000C9468000C946800F9
S11300600C94D4130C9448160C9442160C94441615
S11300700C9446160C9452160C941F170C9468009A
S11300800C9427170C9468000C94680000081C1842
S1130090141011241FBECFEFD0E1DEBFCDBF12E09C
S11300A0A0E0B1E0ECE3FDE300E00BBF02C0079089
S11300B00D92AE37B107D9F724E0AEE7B2E001C044
S11300C01D92AC39B207E1F70E9429170C948D1EDA
S11300D00C940000C0980895B89A0895C09A0895A1
S11300E087B78F7E87BF089586B7089580914604A9
S11300F08F3F69F0E82FF0E0E755FD4F9081909332
S113010046049F3F11F4909370049FEF90830895E9
S113011083B783BF00B600FCFDCF0895DC011196C0
S11301202D913C911297F901EF2FFF27E695E69563
S1130130E370FF27E15DFE4F408124E0329F212DD3
S113014033271124F901E15DFE4F8081082E000C54
S1130150990B840F911D47FD9A9506968A0F9B1F54
S11301600895982F80E02BE1992311F0611101C0CB
S1130170089560FD892797FF04C0990F922766951B
S1130180F3CF990FFCCFAF92BF92CF92DF92EF9251
S1130190FF921F93CF93DF93EA017B016C015A0115
S11301A080E1A80EB11C6991F70181917F010E9441
S11301B0B100182F6F85F70187850E94B1001827B9
S11301C0F60111936F01CA15DB0569F7DF91CF9131
S11301D01F91FF90EF90DF90CF90BF90AF90089564
S11301E080E88093A7021092E102109249041092D1
S11301F045041092BE0208954F925F926F927F92CF
S11302008F929F92AF92BF92CF92DF92EF92FF9222
S11302100F936091EB027091EC028091ED0290914A
S1130220EE022EE433E840E050E00E94BC19F62FC1
S1130230E72FB82FA92F29013A0176946794579490
S113024047946F2F7E2F8B2F9A2F00E20E94E9197B
S113025049015A01C301B201680D791D8A1D9B1D14
S113026097FF05C09F776F5F7F4F8F4F9F4F6093BE
S1130270EB027093EC028093ED029093EE020F91E7
S1130280FF90EF90DF90CF90BF90AF909F908F90B2
S11302907F906F905F904F900895CF92DF92EF928E
S11302A0FF920F931F93CF93DF93EA017B018C019D
S11302B06A0180E2C80ED11C6991F70181917F0126
S11302C00E94B100F80181938F01CC15DD05A1F7DF
S11302D0DF91CF911F910F91FF90EF90DF90CF901E
S11302E00895CF92DF92EF92FF920F931F93CF93D3
S11302F0DF9300D0CDB7DEB78B017C016B0180E4C6
S1130300C80ED11CF8018081898381818A8340E1F0
S113031050E070E060E0CE0101960E94761AF70189
S113032061937F010E5F1F4F0C151D0559F70F9048
S11303300F90DF91CF911F910F91FF90EF90DF907D
S1130340CF900895FC01DB019B01205F3F4F80E0CB
S1130350A217B30771F4DA019A01205F3F4F9D9110
S1130360890FA217B307D9F780838183828383839C
S113037008959D91890FECCF87B78F7D87BF80E269
S113038086BF8EB580648EBD87B7806287BF90E0DC
S113039080E008956E9A8FB9779BFECF8FB1089550
S11303A06E98BA9ABB98B99A0E946C006C9A6F982E
S11303B06B986A986E9A709A8DB18C7F8DB90895F6
S11303C087B78F7D87BF80E286BF8EB58F7B8EBD5A
S11303D087B7806287BF90E080E008958FB7F89474
S11303E00895CF93C82F0E94EE01CCB95E9A8FBFB7
S11303F0CF910895CF93C82F8091E40281110AC050
S11304008C2F0E94F1015E9BFECF8C2FCC0F990B99
S1130410CF9108958FEF9FEFFBCF0E94EE012091C3
S11304200501309106018FBFC90108950F931F93F1
S1130430CF93DF9300D000D00F92CDB7DEB70E94E8
S1130440EE018D8302B709830E94740040919102EA
S113045050919202609193027091940281FF24C0A2
S113046091B782B74F5F5F4F6F4F7F4F490F511D59
S1130470611D711D8A019B01080F111D211D311D74
S113048009831A832B833C831D811FBF69817A8171
S11304908B819C810F900F900F900F900F90DF91A4
S11304A0CF911F910F910895DB01CA010981800F3B
S11304B0911DA11DB11D89839A83AB83BC83E4CFB5
S11304C0CF93C82F0E94EE01EC2FF0E0E755FD4FCB
S11304D090819F3F21F4E0917004CE1309C08FBF37
S11304E085E090E010C0F0E0E755FD4FC08306C002
S11304F0909146049F3FB9F7C0934604C09370049B
S11305008FBF90E080E0CF9108950F931F93CF9316
S1130510DF9300D000D000D0CDB7DEB70E94EE014B
S11305208D8381B7898312B70E947400998119174A
S113053029F0982F92709E8381FF0DC08D818FBF0B
S113054026960FB6F894DEBF0FBECDBFDF91CF91D4
S11305501F910F91089580912B03811136C046EEAF
S11305609FEF940F00B601FCFDCF82B7981301C032
S1130570942F409191025091920260919302709154
S113058094028A019B010F5F1F4F2F4F3F4F090FAA
S1130590111D211D311D041715072607370710F4F7
S11305A0942F909591BF8D818FBF9E81992341F2A5
S11305B080E026960FB6F894DEBF0FBECDBFDF9164
S11305C0CF911F910F910C9460020E9416026983CF
S11305D07A838B839C8340913803509139036091D3
S11305E03A0370913B030091A3021091A40220915D
S11305F0A5023091A60289819A81AB81BC81841BBA
S1130600950BA60BB70B80179107A207B30730F021
S113061010922B0346EE91E09E83A2CF400F511F10
S1130620621F731F8091910290919202A091930294
S1130630B0919402481B590B6A0B7B0B473E510542
S11306406105710508F08BCF423008F089CF42E094
S113065087CFCF93DF93C82FD62F0E94EE01982F18
S1130660EC2FF0E0E45CFC4F81E020812D1380E06E
S11306709FBFDF91CF91089560E080E00C9429033F
S113068080918502882319F081E090E0089580919B
S11306900A018F3FC9F70E943C038823A9F381E034
S11306A08093B3038091A802882379F11092B30355
S11306B085E090E008950E946E008091840282306B
S11306C061F580910701811128C0809109018F3F54
S11306D0B9F0E82FF0E0EA50FD4F908190930901C2
S11306E09F3F11F4909308019FEF9083809307013B
S11306F081E0809384028AE00E9460026E980DC0BB
S11307008093070110928402F9CF8091070181112F
S1130710D4CF80918402823071F290E080E0089519
S11307200F931F93CF93DF93082FD62F172F0E9479
S1130730EE01C82F0E943C0381110EC0CFBF802F51
S11307400E94CA01812F0E94CA018D2FDF91CF918F
S11307501F910F910C94CA01CFBF80E0DF91CF911C
S11307601F910F9108958F929F92AF92BF92CF9253
S1130770DF92EF92FF920F931F93CF93DF930E9428
S1130780EE0100914F0410915004A0903403B090F6
S11307903503C0912C03D0912D039E01265F3F4F5A
S11307A0E0908E02F0908F022E153F0508F4790137
S11307B08FBF4E01670181E0C81AD1088C149D04D3
S11307C048F1CC16DD06D8F1CE0180959095E80E5F
S11307D0F91ECE0DDF1D6F9A0E94EE010115110561
S11307E089F1F801EC0FFD1F90819FB9D0932D037F
S11307F0C0932C038FBF90E080E0DF91CF911F91D5
S11308000F91FF90EF90DF90CF90BF90AF909F90AB
S11308108F90089580E00115110521F0F801E80D8D
S1130820F91D80810E94CA01A114B10421F0F501CF
S1130830E80DF91D80838FEF881A980ABFCFF12C39
S1130840E12CC7CF1FB8D2CFEF92FF920F931F9323
S1130850CF93DF937C018B01EA010E94EE01D093D8
S11308608F02C0938E02E0924F04F09250040093E2
S113087034031093350310922D0310922C038FBF71
S1130880CD2B49F08FB1DF91CF911F910F91FF9044
S1130890EF900C94B30389E00E94600290E080E042
S11308A0DF91CF911F910F91FF90EF900895CF9317
S11308B0DF93D82F0E94EE01C82F0E943C038111C0
S11308C006C0CFBF8D2FDF91CF910C94CA01CFBF4B
S11308D080E0DF91CF91089589E00C945704FF9252
S11308E00F931F93CF93DF9300D000D0CDB7DEB723
S11308F00E94EE01F82E00913003109131032CB5C3
S11309003DB53A8329830E94740082FF06C00F5FBD
S11309101F4F8CB59DB59A838983FFBEC801B0E093
S1130920A0E0DC019927882709811A81A80170E0D9
S113093060E08C019D01042B152B262B372BC9015C
S1130940B8010F900F900F900F90DF91CF911F91EE
S11309500F91FF9008950F931F930E946F04462FE9
S1130960572FBC010091F7021091F8022091F9026F
S11309703091FA028091F2029091F302A091F40274
S1130980B091F502800F911FA21FB31F40175107AA
S11309906207730708F44FC080179107A207B307D3
S11309A030F0481759076A077B0708F04AC08C01E2
S11309B09D01041B150B260B370B0130E0E81E07C5
S11309C02105310508F440C0DB01CA019058AF4F3E
S11309D0BF4F8093F7029093F802A093F902B0936B
S11309E0FA021058210931090093F2021093F3021C
S11309F02093F4023093F50200E010E820E030E0A8
S1130A008CB59DB50396FC01E41BF50BE017F107CB
S1130A1018F4CA01800F911F009711F481E090E04F
S1130A2001979BBD8ABD80E186BF87B7806187BF80
S1130A301F910F91089580179107A207B30708F437
S1130A40B0CF00E010E098018093F7029093F80291
S1130A50A093F902B093FA021092F2021092F302F8
S1130A601092F4021092F502CBCFBF92CF92DF9294
S1130A70EF92FF920F931F93CF93DF93F62E072FDE
S1130A80182FD92F0E946F04B62EC72ED82EE92E08
S1130A900E94EE01C82FB092F702C092F802D092E1
S1130AA0F902E092FA02F092F2020093F302109338
S1130AB0F402D093F5020E94AB04CFBFDF91CF9133
S1130AC01F910F91FF90EF90DF90CF90BF9008950A
S1130AD0CF92DF92EF92FF920F931F93CF93DF9306
S1130AE06C01C62FF42EE52E122F0E94EE01D82F92
S1130AF00E943C03882361F0DFBF00E0802FDF9178
S1130B00CF911F910F91FF90EF90DF90CF900895B8
S1130B10DFBFCC0DDD2DD11D8C2F80680E94CA0152
S1130B20082FCE0196958795807C0E94CA01CF2D0F
S1130B30DE2D1F0D89910E94CA011C13FBCFDECF4D
S1130B40CF93DF93CDB7DEB72C970FB6F894DEBF03
S1130B500FBECDBF0E94EE0198E0EAEAF3E0DE01A9
S1130B60119601900D929A95E1F72091E50230914A
S1130B70E6023A8729872091FB023091FC023C87E8
S1130B802B878FBF2CE0AE014F5F5F4F60E080E6A4
S1130B9091E00E9468052C960FB6F894DEBF0FBE54
S1130BA0CDBFDF91CF9108950E94EE01982F8091DF
S1130BB0B2039FBF8B50990B25E0289FB001299F5A
S1130BC0700D11246B597E4F706488E10C9490036E
S1130BD0CF930E94EE01C82F8091BD02882329F093
S1130BE091E080914E04811101C090E040E0592FC2
S1130BF0550F550F550F8091E70270E060E0882390
S1130C0049F091E080E020914103211101C090E07E
S1130C10692F782F84E0660F771F8A95E1F7642B9C
S1130C20752B626E726281E10E949003CFBFCF91F7
S1130C300895CF93DF9300D000D00F92CDB7DEB7E5
S1130C400E94EE018D830E94FC0069837A838B836A
S1130C509C8389819A8166E470E00E946B190B96EB
S1130C6090936E0480936D049C0150E040E02983CE
S1130C703A834B835C83CA01B9010E9435053D81E7
S1130C803FBF0F900F900F900F900F90DF91CF9177
S1130C900895CF93DF93D82FC92F0E94EE01D093EC
S1130CA08902C0938A028FBF84E0DF91CF910C94B4
S1130CB06002CF93DF93D82FC92F81E090E0909307
S1130CC08302809382021092A8020E9440038D2F17
S1130CD09C2FDF91CF910C9449060F931F93CF93D0
S1130CE0DF938C01C62F0E94EE01D82F0E943C0393
S1130CF0882341F0DFBFD0E08D2FDF91CF911F918A
S1130D000F910895DFBF8FE790E0909302038093E3
S1130D1001030E94CA01D82F4C2F50E0B80190E083
S1130D2080E00E942404E8CF0E946A0061E0809180
S1130D308C0290918D020C946D06CF93C82F0E9463
S1130D40EE01982FEC2FF0E0E45CFC4F808121E071
S1130D5030E0811104C081E0808330E020E09FBF57
S1130D60C901CF9108950F931F93CF93DF93082F59
S1130D700E94EE01182F80E00E949D06EC01892B51
S1130D8049F01FBFC5E0D0E0CE01DF91CF911F91A4
S1130D900F9108958091840290910701911106C0EA
S1130DA0823021F400930A011FBFEECF81110CC0E1
S1130DB082E080938402109207010E94D0010E9475
S1130DC06C000E946A00EECF0E94EE0110923C0378
S1130DD08FBFC1E0D0E0E8CFCF93DF93C82F0E944C
S1130DE0EE01D82F80E00E949D06892B91F5C093D7
S1130DF00A01809184029091070191110BC0823005
S1130E0049F488E00E946002DFBF90E080E0DF9157
S1130E10CF910895811107C081E0809384021092DC
S1130E2007018AE0EFCF8091F6028F3F69F7E091E6
S1130E300801EE2349F3809109018F3F29F41092B0
S1130E40090110920801E0CFF0E0EA50FD4F108252
S1130E50F8CF21E030E001C0220FCA95EAF7809173
S1130E608502822B80938502CFCFCF93DF9383E0DB
S1130E700E94B306EC01892B19F083E00E94EC0672
S1130E80CE01DF91CF91089582E090E09093B90272
S1130E908093B80281E08093E10280910A0184305A
S1130EA011F40C94940684E00E94B306892BC9F3D0
S1130EB084E00C94EC060F931F93CF93DF9300917F
S1130EC0E8021091E902F801EC59FF4FC081C11109
S1130ED001C0CFE10E946A008091BC028C1739F0F6
S1130EE06C2F70E0606E706885E10E949003C0937F
S1130EF0BC02F801C0810E94EE01D82F0E943C037D
S1130F00882331F0DFBFDF91CF911F910F910895B6
S1130F10DFBF8EE390E090930203809301030E946D
S1130F20CA01C1504C2F50E070E060E0C801DF916D
S1130F30CF911F910F910C942404EF92FF920F9381
S1130F401F93CF93DF93EC010E94EE01182FCE0183
S1130F500E948E002FE3FC0120831FBF10924C04DB
S1130F6010924B0482E00E949D068C01892B09F0AB
S1130F7071C08091B40391E0980F9093B4038B8374
S1130F800E94EE01F82E62E081E00E9429038111A3
S1130F9010C0FFBE0E94EE0110923E038FBF01E01D
S1130FA010E0C801DF91CF911F910F91FF90EF9056
S1130FB008950E94EE0194E090933D038FBFD09377
S1130FC02803C0932703FFBE89819A8180729C7C89
S1130FD09C01216429839A83FE01EA59FF4F108200
S1130FE03497108231961082349710823197108290
S1130FF031971082C45ADF4F80E88883C1E0C093E0
S11310004003E0902703F09028030E94EE01209112
S11310108202309183022830310511F48FBFC1CF91
S113102021303105D9F722E030E030938302209358
S11310308202C0937104F092E902E092E8021092F5
S113104090028FBF0E943507892B09F0AACF0E9416
S11310505B07A7CF05E010E0A4CF1F93CF93DF93E6
S1131060EA01122F213508F044C08B876E837F83F9
S11310700E94EE012091E5023091E6028FBF3D838C
S11310802C830E940D029987888789819A818064C4
S113109098689A8389838DE0810F88838091030106
S11310A0811114C0212F30E03093060320930503EF
S11310B0D0937F02C0937E028CE00E9460028091F4
S11310C00301811111C089E090E00AC0109203016C
S11310D0CE010E949D07009719F02FEF2093030182
S11310E0DF91CF911F9108951092EF0290E080E07C
S11310F0F7CF82E090E0F4CF10920001E0912E034C
S1131100F0912F03309721F080914A0480FF04C0AE
S113111081E080930001089520812D5066817781BC
S1131120AF0183850E942D08892B19F08EE00C9461
S113113060020895CF93DF939C0180910001811197
S113114012C0C0912E03D0912F03C217D30759F4B4
S113115010922F0310922E030E947C08C254D34095
S113116011F410928B02DF91CF9108952F923F9248
S11311704F925F926F927F928F929F92AF92BF92A3
S1131180CF92DF92EF92FF920F931F93CF93DF934F
S1131190CDB7DEB7CC58D1090FB6F894DEBF0FBE79
S11311A0CDBF462F572FBC01E0915F04E1FF1BC068
S11311B08091530490915404A0915504B091560425
S11311C0C0905704D0905804E0905904F0905A0409
S11311D08A019B01081B190B2A0B3B0B0C151D05DF
S11311E02E053F05E0F5E0916C04E1FF1BC0809102
S11311F0600490916104A0916204B0916304C09072
S11312006404D0906504E0906604F0906704481B81
S1131210590B6A0B7B0B21E030E04C155D056E0524
S11312207F05F8F481E00E946002C457DF4F0FB6D7
S1131230F894DEBF0FBECDBFDF91CF911F910F9108
S1131240FF90EF90DF90CF90BF90AF909F908F90E2
S11312507F906F905F904F903F902F90089530E073
S113126020E0E0FF45C18DE0829FF001839FF00DF7
S11312701124E15AFB4F80818D7F8083232B91F6CB
S11312808091290390912A03019690932A038093D5
S1131290290320918B022111C5CF89838FE0EFE1CF
S11312A0F1E0DE01129601900D928A95E1F70E9419
S11312B0EE012091F0023091F102409188005091AA
S11312C0890090917C0092FF06C02F5F3F4F4091B0
S11312D08800509189008FBFC901B0E0A0E0DC0113
S11312E099278827842B952B0E946B1A8E010B5803
S11312F01F4F6E0125E3C20ED11C480164E0860E27
S1131300911C780116010E94671AD8018D938D01F2
S11313100E94671AF60181936F018016910699F76E
S1131320F70180819181A281B3814C015D01F3E0D9
S11313308F229924AA24BB249C01AD010196A11DEE
S1131340B11D63E086169104A104B10471F78DA860
S11313509EA8AFA8B8AC2401350183E048225524E7
S113136066247724F82DE92DC501AFEF8A1A9A0A6D
S1131370AA0ABA0AB3E04B1651046104710459F77E
S11313806F2F7E2F0E944F19C757DF4F68837983D1
S11313908A839B83C958D04064E473E382E291E179
S11313A0C757DF4F288139814A815B81C958D040B2
S11313B00E947F199B01AC010E944F19C757DF4F50
S11313C0288139814A815B81C958D0400E947F19A4
S11313D08E010B5A1F4F4801E0E18E0E911C502ED6
S11313E0612E712C28E0C22ED12C9B01AC010E94ED
S11313F04F19CB57DF4F688379838A839B83C55802
S1131400D040C757DF4F288139814A815B81C95851
S1131410D0400E947F19262F2170722A770CF1E0A8
S1131420CF1AD10811F7D80150967C92F801719225
S11314308F018E169F06A9F647E053E0652D762DA1
S1131440C1010E944D014FEB52E0B101C7010E945E
S1131450C30042E754E0652D762D82E693E00E94B6
S11314604D01FE01319697016EE473E0AE014F5ECB
S11314705F4F4E175F0709F04CC0A7016EE473E09D
S11314808EE593E00E94A2018FEF8093480380933E
S1131490490386E080934D0380912E0390912F039E
S11314A0892B01F582E493E090932F0380932E031C
S11314B081E48093420380910001882399F1109282
S11314C0000124E342E453E06FEF7FEF86E00E94E3
S11314D02D08892B39F181E08093000110922F03AC
S11314E010922E0383E391E00E949F1BDA989ACE18
S11314F04DE0429FF001439FF00D1124ED5AFB4F44
S11315008C0D9D1DAE1DBF1D80839183A283B3836B
S1131510B5CE8191D9019D919D018927DB018D93E0
S1131520BD01A7CF81E080938B027CCECF93DF9364
S1131530D82F0E94EE01C82F80910A018D1731F037
S1131540CFBF81E090E0DF91CF9108958FEF80933A
S11315500A014091850241110BC00E94EE011092D4
S11315603C038FBF0E944003CFBF90E080E0EBCFED
S113157080E025E0E42FF0E0622F0E945F19DF0194
S1131580092E02C0B595A7950A94E2F7A0FF10C0F2
S113159090930A0121E030E001C0220F9A95EAF706
S11315A0209524232093850288E00E946002DCCFEA
S11315B081E0890FE1CF83E00C94960ACF93DF9307
S11315C00E94EE01C82F80918202909183020897B5
S11315D0A1F40E946C040E94DB0A0E946E0081E068
S11315E090E0909383028093820283E090E00E94D3
S11315F04906CFBFDF91CF9108950E946A00809180
S113160071048823D9F085E00E945704D82FD8703C
S113161083FF16C0D1E083E090E09093830280932F
S113162082020E946E00CFBFDD2391F010929002DF
S11316300E94DB0ADF91CF910C94190684E0E4CF79
S113164080E00E94570483FFE5CF85E090E0E5CF7A
S113165060E471E080E090E0DF91CF910C94350577
S113166084E00C94960ACF930E94EE01C82F8091D7
S1131670B8029091B902892B19F40E94300B11C061
S11316801092E1029091BE02992311F0B79904C01F
S11316900E990AC0992319F091509093BE020E94AA
S11316A04407CFBFCF91089581E090E09093B902B1
S11316B08093B8021092BE02E0CF0E94F0000E9414
S11316C06E000E946A0088E00E94570488E00E942D
S11316D057040E946E000E94300B0C94330BEF925F
S11316E0FF920F931F93CF93DF9300D000D000D0CD
S11316F0CDB7DEB78C018091010386FFB7C18F7B24
S11317008F3309F024C220918C0230918D023E83E4
S11317102D83D9014C914093BA028091B8029091E3
S1131720B9028530910509F45FC08630910509F44A
S1131730B1C0029709F088C185E090E09093B902A6
S11317408093B8028091A702481770F026960FB6CE
S1131750F894DEBF0FBECDBFDF91CF911F910F91E3
S1131760FF90EF900C945D0BB79906C00E9904C0DE
S11317708150841B8093A7024E3540F7442301F126
S11317806D817E816F5F7F4F483090F047E050E07D
S113179090E080E026960FB6F894DEBF0FBECDBF72
S11317A0DF91CF911F910F91FF90EF900C9424043F
S11317B086E090E09093B9028093B80250E0E8CFBD
S11317C01092E1020E946E000E94300B26960FB622
S11317D0F894DEBF0FBECDBFDF91CF911F910F9163
S11317E0FF90EF900C94330B86E090E09093B90255
S11317F08093B8028091E7020D811E81085F1F4F1C
S1131800882309F441C08091410381113DC0ED81D9
S1131810FE81818185FF38C0E680F7800E94EE0159
S11318202091FB023091FC028FBFE216F30639F0DF
S1131830AD81BE8116968D919C91019629F5ED811D
S1131840FE8181819281877099270197E9F40E9432
S11318506E000E946A008AE00E9457040E946E0093
S11318600E946A006091BA026750C80126960FB6BA
S1131870F894DEBF0FBECDBFDF91CF911F910F91C2
S1131880FF90EF900C946D064091BA02475050E0DF
S1131890B8017ECF0E946E008091BE02882309F4B5
S11318A069C0B79B6DC080918C0290918D02FC0140
S11318B0E959FF4F1082389710823197108231977F
S11318C01082845A9F4F20E8DC012C93E091BA02E5
S11318D02D813E812E0F311DF901808187FF76CF46
S11318E0012B09F473CFAD81BE8111968C91877061
S11318F0823009F097C0E091E802F091E902309754
S113190009F464CF8091820290918302079709F0D1
S11319105DCF20918C0230918D023A83298393818B
S1131920D90113968C91981351CF0E947000809125
S1131930E8029091E902A981BA81EC91DC01AA59EB
S1131940BF4F21E02C9329813A812E0F311DF901DB
S1131950D90111972C91DC01AE59BF4F2C938D59AD
S11319609F4F20812F77DC012C9390E080E00E9430
S113197059062CCF0E94300B8091BE02811191CF69
S11319800E9B91CF40914504442309F48CCF809160
S1131990BA028B3008F487CF2091490430E04130FB
S11319A0E9F4F901EE0FFF1FEE0FFF1FE354FC4FA4
S11319B080819181A281B381BC01CD010E94AA19C9
S11319C069837A838B839C83E0918C02F0918D02EE
S11319D0E45AFF4F60837183828393832F5F3F4F69
S11319E027703327209349044150409345044423EE
S11319F009F46CCF80918C0290918D02FC01E9591D
S1131A00FF4F1082389710823197108231971082DD
S1131A10845A9F4F20E8DC012C93109249041092C1
S1131A20450454CF813009F0D1CE8BE026960FB611
S1131A30F894DEBF0FBECDBFDF91CF911F910F9100
S1131A40FF90EF900C9460021092E1020E946E00ED
S1131A5026960FB6F894DEBF0FBECDBFDF91CF91AF
S1131A601F910F91FF90EF900C94300B8E3309F07F
S1131A706EC00E946E00809182029091830208974A
S1131A80F1F40E946A000E946C040E946E000E949D
S1131A90DB0A81E090E0909383028093820283E0EA
S1131AA090E026960FB6F894DEBF0FBECDBFDF914F
S1131AB0CF911F910F91FF90EF900C944906809164
S1131AC07104811114C084E090E0909383028093A8
S1131AD0820226960FB6F894DEBF0FBECDBFDF910B
S1131AE0CF911F910F91FF90EF900C94DE0A0E940A
S1131AF0DB0A83E090E090938302809382020E9449
S1131B00FC0069837A838B839C8389819A8166E351
S1131B1071E00E946B190B969093A2028093A1022C
S1131B209C0150E040E029833A834B835C83CA01E3
S1131B30B90126960FB6F894DEBF0FBECDBFDF9174
S1131B40CF911F910F91FF90EF900C94350526963D
S1131B500FB6F894DEBF0FBECDBFDF91CF911F91BA
S1131B600F91FF90EF9008958F929F92AF92BF9242
S1131B70CF92DF92EF92FF920F931F93CF93DF9355
S1131B80CDB7DEB7C855D1090FB6F894DEBF0FBE86
S1131B90CDBF8F3008F04FC0E82FF0E0E157F14E91
S1131BA00C94A1198091BB02811141C08090B903AA
S1131BB09090BA03A090BB03B090BC030E94EE01C6
S1131BC0C0903803D0903903E0903A03F0903B037F
S1131BD04091A3025091A4026091A5027091A602C3
S1131BE0C40ED51EE61EF71E8FBF8092B9039092D5
S1131BF0BA03A092BB03B092BC031092BB020E9432
S1131C00EE0191E090932B03C0923803D0923903F4
S1131C10E0923A03F0923B038092A3029092A402D2
S1131C20A092A502B092A6028FBF0E9485020E94D4
S1131C3016020E94B608C85ADF4F0FB6F894DEBFEA
S1131C400FBECDBFDF91CF911F910F91FF90EF9009
S1131C50DF90CF90BF90AF909F908F9008950E9497
S1131C6016024B015C010E94EE0110922B038FBF00
S1131C7080915F04282F227081FF4FC0809153040C
S1131C8090915404A0915504B09156044091570486
S1131C90509158046091590470915A04840F951F0F
S1131CA0A61FB71F88199909AA09BB0921E08F3F0C
S1131CB03FEF9307A3073FE7B30709F420E0309110
S1131CC06C0431FF1DC0C0906004D0906104E090AA
S1131CD06204F0906304409164045091650460913F
S1131CE0660470916704C40ED51EE61EF71EC8185C
S1131CF0D908EA08FB08C816D906EA06FB062CF040
S1131D00222309F498CF6C017D011C141D041E04C8
S1131D101F0444F0C501B4018CCF8FEF9FEFAFEFE8
S1131D20BFE7CDCFC092B903D092BA03E092BB0310
S1131D30F092BC0311E01093BB020E94EE011093D9
S1131D402B038092380390923903A0923A03B09205
S1131D503B03C092A302D092A402E092A502F092A7
S1131D60A6028FBF0E94850266CF0E94EE01182F43
S1131D700E94BC01EE24E394F12CF0928302E092E1
S1131D808202109281021092A8021092BC021FBF1C
S1131D900E94EE01182F0E94F000F092B902E09226
S1131DA0B8021092E10289B78F7B89BF80E488BFB3
S1131DB08AB780628ABF8AB78F7E8ABF89B78064F8
S1131DC089BF1FBF0E94EE01182F80918702909156
S1131DD088020497A1F11FBF0E94EE01182F0E94F0
S1131DE06E0080E00E94960A1FBF0E94EE0192E0FE
S1131DF090933D038FBF80E491E00E949F1B0E945B
S1131E001602609353047093540480935504909382
S1131E10560488EE93E0A0E0B0E0809357049093DA
S1131E205804A0935904B0935A0480915F048C7FA2
S1131E30826080935F0481E00E946002FCCE83E0B4
S1131E400E945704C8CF0E94EE0110923D038FBF39
S1131E50F2CE0E94EE018FBF63E081E00E9429036D
S1131E60882309F441C00E94EE01182F10928302C6
S1131E70109282020E94700087B78F7D87BF0E94F4
S1131E80DB0A0E946E001FBF0E94EE01182F109201
S1131E90B9021092B8020E94F0000E946E0089B745
S1131EA08F7B89BF1FBF1092880210928702DE9831
S1131EB0DD98DE9A83E00E9460020091270310916E
S1131EC028030E94EE0110923E038FBF80914B04C1
S1131ED090914C04892B09F0AECE8FEF80930301CF
S1131EE0C8010E949A08A7CE0E94EE0192E0909346
S1131EF03D038FBFE2CF0E94EE01182F80916F0443
S1131F00882311F01FBF97CE81E080936F048091E6
S1131F10870290918802049721F481E00E94EC06E4
S1131F20F1CF86E00E946002EDCF0E94EE01109294
S1131F306F048DCF0E94EE0190918602911187CF9C
S1131F408FBF10B316FB112710F98091FD029091F9
S1131F50FE029817E1F081131AC084E090E0909398
S1131F608802809387020E94EE0191E0909386029A
S1131F708FBF70E060E08DE10E9490030E94A00595
S1131F800E946E000E946A0082E00E946002109328
S1131F90FE0287E051CF0E94EE0190910A018FBFAB
S1131FA0923009F461C008F03EC0911144C00E940F
S1131FB06A000E94EE01182F809187029091880296
S1131FC0029709F09FCF83E090E09093880280937A
S1131FD0870268E170E08DE10E94900381E08093C4
S1131FE0FD021092860280B386FB882780F98093D5
S1131FF0FE0287E00E94600281E00E9457046FE7BE
S113200072E08CE10E9490030E94D4050E94E805CE
S113201066E57AE287E10E9490036FEF70E885E15C
S11320200E9490036FCF9330D1F1943009F003CE26
S11320300E94940600CE0E946A0086E00E94570423
S11320400E94D4050E94E8050E94A0050E946E002B
S11320500E946A0083E00E9457040E946E0081E09F
S11320600E94960A86E0E8CE0E946A000E94EE0171
S1132070182F0E943C03882339F01FBF0E946E0072
S113208082E00E94960AD7CD1FBF83E50E94CA0151
S113209080E00E94CA0180E00E94CA01EFCF0E9442
S11320A0EE0120918202309183028FBFC9019927EA
S11320B0243041F08830910541F00297E1F40E9408
S11320C05B07B9CD0E94DE0AB6CD0E946A000E9469
S11320D06C040E946E000E94DB0A0E94EE0121E063
S11320E030E030938302209382028FBF83E090E03C
S11320F00E944906A0CD0E94DB0A9DCD0E94EE01FC
S1132100182F809134039091350310923503109267
S113211034031092500410924F0410928F021092C4
S11321208E0210922D0310922C030E946F0BEACEA4
S11321300E94EE01182F82E0809384020E94D00155
S11321401FBF80910701811176CD0E946C000E940F
S11321506A0088E071CE00918C0210918D02D80142
S1132160EC90F801EE0DF11DAB59BF4F8081881F33
S11321708827881F8C93129780818F778C9331974F
S11321808081F801EE59FF4F8083F801F2800E94AC
S1132190EE019091BD028FBF911150C0FCE0FE157D
S11321A008F071C000918C0210918D02D801119633
S11321B08D919C919C01232F33272695269523707E
S11321C0332784E0989F812D9927112448E050E01B
S11321D0039711F042E050E0E8E0F0E023303105ED
S11321E011F0E2E0F0E03696E00FF11FD12CC12CA3
S11321F090E080E02191C20ED11C019684179507CE
S1132200C9F7F801B3808FEF80934D040E94EE016B
S113221020914D04E5E9F2E090E0408151814C15B4
S11322205D0509F079C03281B31275C020934D0465
S11322308FBF10938D0200938C0225C08F2D86953D
S1132240869590E0837099278230910521F5D80115
S11322501696CD90DC900E94EE012091FB02309105
S1132260FC028FBFC216D30609F498CF81E090E038
S1132270F801268137812F3F3F4F11F090E080E035
S1132280892B09F08BCF0E94EE011092E1028FBFDF
S11322900E94330BD0CC0397B1F788E0EAEAF3E06D
S11322A0DE01AB5BBF4F01900D928A95E1F788E0A8
S11322B0FE01EB5BFF4FDE01119601900D928A95B2
S11322C0E1F788E0FE013196DE01A35BBF4F019088
S11322D00D928A95E1F788E0FE01E35BFF4FDE0192
S11322E0119601900D928A95E1F788E0FE013196EE
S11322F0DE01D59601900D928A95E1F748E050E011
S1132300BE016B5C7F4FC80106960E94771B892B28
S113231009F444CFB8CF292F33969F5F943009F046
S11323207CCF20934D048FBFF0904D040E94EE01AA
S113233090918002FFEFFF1619F040E0F91202C0FD
S1132340F92E41E02F2D30E0F901EE0FFF1FE20FCF
S1132350F31FEB56FD4FD182C082B282442321F099
S11323609F5F9370909380028FBF0E94EE01F82EBE
S1132370C8010E948E00DC018C91FFBEF801EB596C
S1132380FF4F9081992309F454CF8F3309F051CF33
S1132390F801C680D7800E940D02C816D90639F00C
S11323A0D80116968D919C91019609F042CFD801DF
S11323B01B968C91863009F03CCFE1E4EE1239CFC4
S11323C083E591E09F938F930E948B1B7801FCE03F
S11323D0EF0EF11C68012CE1C20ED11C0F900F907E
S11323E057013EE5832E31E0932ED5018D915D0199
S11323F01F928F939F928F920E948B1B0F900F902E
S11324000F900F90CA14DB0481F75801B0E2AB0EB1
S1132410B11C47E053E0B501CE01C5960E94C3004C
S1132420AE014B5C5F4FB701CE018B5A9F4F0E94A8
S1132430A201FE01EB5AFF4FD60191918D919813A1
S113244051C0AA15BB05C9F79E012B5C3F4FDE01A5
S11324501196CE14DF04E9F5F12CE12CFF92EF92F2
S113246084E691E09F938F930E948B1B9E012F5FC4
S11324703F4F69014E0131E1830E911C0F900F9083
S11324800F900F909EE5A92E91E0B92ED6018D9163
S11324906D011F928F93BF92AF920E948B1B0F907E
S11324A00F900F900F908C149D0481F781E591E0BB
S11324B00E949F1BEF20E09409F4BBCE898180FF2A
S11324C015C0DA9881FF14C0D99882FF13C0D89838
S11324D0B0CEF70181917F01F90191919F01892784
S11324E08D93B7CFEE24EA94FE2CB8CFDA9AEACFD4
S11324F0D99AEBCFD89A9DCE8091EF0290910301A7
S1132500891709F498CB80930301811111C080913C
S11325107E0290917F020E949D07882309F48BCB51
S11325208FEF8093030180917E0290917F02D9CC3A
S11325308FEF809303017FCB80914A04882309F4B1
S11325407ACB30918B02EEE2F3E090E021E0422F6F
S1132550482369F04081518111821082622F609575
S11325608623911104C04254534009F430E0220FF1
S11325709F5F3296983059F780934A0430938B02C8
S11325805ACB10910001E12FF0E0EE0FFF1FE25D46
S1132590FC4FE080F180118210820E947C081111AE
S11325A04ACB82E4E81683E0F80609F044CB1092A3
S11325B08B0241CB8FBF08951F920F920FB60F92DB
S11325C011240BB60F922F933F934F935F936F9306
S11325D07F938F939F93AF93BF93EF93FF930E9447
S11325E0880081B790E00196409191025091920247
S11325F06091930270919402480F591F611D711DDF
S113260040939102509392026093930270939402C8
S113261078940E948502FF91EF91BF91AF919F91B1
S11326208F917F916F915F914F913F912F910F9077
S11326300BBE0F900FBE0F901F9018951F920F9214
S11326400FB60F9211240BB60F922F933F934F9313
S11326505F936F937F938F939F93AF93BF93EF9306
S1132660FF930E948800FF91EF91BF91AF919F91DA
S11326708F917F916F915F914F913F912F910F9027
S11326800BBE0F900FBE0F901F90189578941F9259
S11326900F920FB60F9211240BB60F922F933F9304
S11326A04F935F936F937F938F939F93AF93BF9356
S11326B0CF93EF93FF930E9470000E94EE01C82F06
S11326C08091F2029091F302A091F402B091F5028C
S11326D0892B8A2B8B2B09F062C0209182023091C6
S11326E083022530310509F451C060F523303105EA
S11326F0B1F12430310561F1809187029091880213
S1132700019759F482E090E09093880280938702C5
S1132710DE98DE9A80E00E94EC06CFBFFF91EF9135
S1132720CF91BF91AF919F918F917F916F915F9165
S11327304F913F912F910F900BBE0F900FBE0F90B2
S11327401F90189527303105E1F028303105A1F6A6
S11327500E943507892B81F60E94DE0ACDCF869B25
S11327600DC084E090E0909383028093820267E03E
S113277070E080E090E00E943505BECF0E9419060B
S1132780BBCF90E080E00E945906B6CF0E946C0453
S11327900E94BC010E94DB0A87E090E0F4CF0E9413
S11327A0AB04BBCF789418957894189578941F92BD
S11327B00F920FB60F9211240BB60F922F923F92E5
S11327C04F925F926F927F928F929F92AF92BF923D
S11327D0CF92DF92EF92FF920F931F932F933F9329
S11327E04F935F936F937F938F939F93AF93BF9315
S11327F0EF93FF93CF93DF93CDB7DEB72E97F89483
S1132800DEBF7894CDBF06B517B50E94EE01382E11
S11328100E946F046B017C014B01801A910AB12C58
S1132820A12C2B013C01481859086A087B088091A7
S11328308202909183028530910509F469C006975C
S113284009F4FBC0809181029091E002892B09F088
S11328503EC181E08093E0020E94E001B0B3B983FD
S113286080914504883088F4E0914904E80FE770CA
S113287094E0E99FF0011124E354FC4F408251821B
S1132880628273828F5F8093450481E0809381022A
S113289010930403009303038499E8C0A981A295CB
S11328A0A170A9838091E002813009F0DFC0109209
S11328B0E0020E94BC0110928102B981B111D6C01C
S11328C08091030390910403081B190B0A3011052E
S11328D008F0CCC080914504882319F0815080937E
S11328E045048091E8029091E902009709F4BEC082
S11328F0FC01E959FF4F10823897108231971082FA
S113290031971082845A9F4F20E8FC012083AEC087
S113291086E090E0909383028093820281E080932A
S1132920E002109281020E94E001A091E802B091BD
S1132930E902BE83AD83C301B2010E94AA1969836F
S11329407A838B839C83FD01E45AFF4F60837183F8
S1132950828393833B968081882309F45EC08C91A3
S11329609BEF292E280EA20DB11DBE83AD838D9140
S11329709D910D90BC91A02DBC01CD010E94AA197E
S11329808C189D08AE08BF08DC01CB01880D991D89
S1132990AA1DBB1D89839A83AB83BC83BC01CD0173
S11329A00E94AA196F83788789879A87AD81BE812F
S11329B06D937D938D939C9313970E946A0024E0FA
S11329C04D815E81622D90E080E00E9468050E9446
S11329D06E00AD81BE818D919D910D90BC91A02D15
S11329E0BC01CD010E94AA19DC01CB01840D951D07
S11329F0A61DB71D89839A83AB83BC83BC01CD011B
S1132A000E94AA196B877C878D879E87AD81BE81C2
S1132A106D937D938D939C931397E091E802F091CD
S1132A20E902818185FF03C081E08093A8020E94AE
S1132A30DB0A0E947000849919C01092E0020E947F
S1132A40BC01E091E802F091E902818185FF3AC07E
S1132A5087E090E0909383028093820260E071E0CB
S1132A6080E090E00E9435058499ECCE3FBE2E961E
S1132A700FB6F894DEBF0FBECDBFDF91CF91FF91AB
S1132A80EF91BF91AF919F918F917F916F915F91E2
S1132A904F913F912F911F910F91FF90EF90DF90F5
S1132AA0CF90BF90AF909F908F907F906F905F90EA
S1132AB04F903F902F900F900BBE0F900FBE0F9032
S1132AC01F90189590E080E00E945906CDCF19829E
S1132AD0E9CE78941F920F920FB60F9211240BB681
S1132AE00F922F933F934F935F936F937F938F93A3
S1132AF09F93AF93BF93EF93FF930E94EE012091B6
S1132B003003309131032F5F3F4F309331032093D3
S1132B1030038FBFFF91EF91BF91AF919F918F9140
S1132B207F916F915F914F913F912F910F900BBEC9
S1132B300F900FBE0F901F90189518951895189523
S1132B401895189518951F920F920FB60F9211248D
S1132B500BB60F922F933F934F935F936F937F9393
S1132B608F939F93AF93BF93EF93FF938091B8029A
S1132B709091B9020197D9F482E090E09093B90260
S1132B808093B8020E944407FF91EF91BF91AF91E7
S1132B909F918F917F916F915F914F913F912F9171
S1132BA00F900BBE0F900FBE0F901F901895809141
S1132BB0BE028F5F8093BE02E7CF18951F920F92DB
S1132BC00FB60F9211240BB60F922F933F934F938E
S1132BD05F936F937F938F939F93AF93BF93EF9381
S1132BE0FF932FB18091340390913503009741F006
S1132BF040912C0350912D03840F951FFC012083D9
S1132C0080912C0390912D03019690932D03809332
S1132C102C036F9820912C0330912D0380918E0208
S1132C2090918F0228173907A8F40E94B303FF91EB
S1132C30EF91BF91AF919F918F917F916F915F9130
S1132C404F913F912F910F900BBE0F900FBE0F909D
S1132C501F90189580913403909135031092350399
S1132C60109234031092500410924F0410928F0269
S1132C7010928E0210922D0310922C032FB10E94F9
S1132C806F0BD5CF789418957894189578941895F7
S1132C9078948F939F9380918000909181009F916D
S1132CA08F91189578941F920F920FB60F9211245A
S1132CB00BB60F922F933F934F935F936F937F9332
S1132CC08F939F93AF93BF93EF93FF930E94EE0173
S1132CD02091F0023091F1022F5F3F4F3093F102C7
S1132CE02093F0028FBFFF91EF91BF91AF919F911D
S1132CF08F917F916F915F914F913F912F910F90A1
S1132D000BBE0F900FBE0F901F90189590E080E0BF
S1132D1008951F921FB61F9211242F932BB72F9340
S1132D203F934F936F937F938F939F93EF93FF936F
S1132D305F9B2CC04CB18091320390913303009778
S1132D4029F12091510430915204B9016F5F7F4FF2
S1132D507093520460935104820F931FFC014083CB
S1132D6020915104309152048091920490919304E3
S1132D702817390758F010923303109232038091C8
S1132D803603833019F0579810923603FF91EF9170
S1132D909F918F917F916F914F913F912F912BBF75
S1132DA02F911F901FBE1F90189578941F920F9219
S1132DB00FB60F9211240BB60F922F933F934F939C
S1132DC05F936F937F938F939F93AF93BF93EF938F
S1132DD0FF938091E2029091E3022091B703309136
S1132DE0B8038217930718F5E091FF02F0910003EE
S1132DF09C012F5F3F4F3093E3022093E202E80FE0
S1132E00F91F80810E94F101FF91EF91BF91AF9171
S1132E109F918F917F916F915F914F913F912F91EE
S1132E200F900BBE0F900FBE0F901F90189510922D
S1132E3000031092FF021092E4025698E5CF8F939C
S1132E4080919B0087FD80919C008F9118957894C8
S1132E50189500D000D000D0CDB7DEB70E94EE01A7
S1132E60B82E4FE050E06FEF70E089EA92E00E94E4
S1132E70841B8FEF809346048093700481E08EBDA1
S1132E8088E080BF83E083BF2CB53DB58AE74CB5AD
S1132E905DB54217530710F4815011F09A01F7CF32
S1132EA092B782B79817E9F38CB59DB532B722B7BC
S1132EB03217E9F32CB53DB5205F3F4F281B390B82
S1132EC075E0369527957A95E1F730934804209379
S1132ED0470413BE1EBC10BE12BE1DBC1CBC8FEF2B
S1132EE086BF80937C0080B78770E9F7D29AD19A25
S1132EF0D09ADA9AD99AD89A15BA8FEF84BBD49813
S1132F00DC98109289001092880080917D00846082
S1132F1080937D0080918A00887F826080938A00FC
S1132F201DBC1CBC87B7846087BF8EB5887F846056
S1132F308EBD0E9476008D838093EA028F3F09F054
S1132F400BC18BE091E0909397048093960402E088
S1132F5016E08091470490914804B0E0A0E09C0101
S1132F60AD018CE0220F331F441F551F8A95D1F702
S1132F70C12C91EED92EE12CF12CCA01B901A70183
S1132F8096010E947F192150310929B9309390008C
S1132F900BB9109395001AB8809147049091480496
S1132FA0B0E0A0E09C01AD016CE0220F331F441F90
S1132FB0551F6A95D1F729833A834B835C83CA01F1
S1132FC0B901A70196010E947F192150310920936C
S1132FD099003093980000939B0010939D001092E9
S1132FE09A0084E490E09093B6038093B5035698D6
S1132FF05798109236031092E402539A549A579AAF
S11330003D813093DF028FEF9FEF90939602809380
S113301095021092970290939902809398021092CD
S11330209A0290939C0280939B0210929D0290932B
S11330309F0280939E021092A0020E94FC00609363
S1133040B4034091190150911A014F5F5F4F70E032
S113305060E04093EB025093EC026093ED027093B6
S1133060EE028DED93E090938D0280938C028E9806
S11330700E946C008C984D814093F60210923C03A0
S113308010923D0310923E0310923F030E946C0085
S1133090D69AD59A0E940D029093FC028093FB026B
S11330A08091190190911A01982789279827909364
S11330B0B1038093B0038091040190E09093E60201
S11330C08093E5028FE1809337038AE18093B20312
S11330D01092AA0382E18093AB038DE68093AC0344
S11330E08CE48093AD038FE48093AE031092AF031E
S11330F04AEA53E0DA01FA018191AF0117969C91F3
S113310017979F0121503109F901908317968C93E9
S113311017971197F3E04E3A5F0769F781E08093C0
S1133120BD0210924E048093E7021092410380B7CF
S1133130886080BF8BE083BF86EE81BF87B78260E3
S113314087BF0E9485020E9476008093EA028F3F27
S113315039F00E94B40DF7CF8D810E94B40DE9CEF1
S1133160BFBE78948091190190911A01892BA9F11D
S11331702BEB31E03A8329830AE711E06DE372E037
S113318087E093E00E947101B8018FEB92E00E9406
S1133190710169817A8182E794E00E94710181E082
S11331A00E949D06892B89F50E94EE0120918702D9
S11331B030918802232BD1F08FBF0E94EE018983C6
S11331C00E9476008093EA028F3F51F159815FBFDC
S11331D08091EA020E94B40DF0CF4AE751E05A838D
S11331E049830BEB11E06CEF71E0CACF21E030E0D2
S11331F030938802209387028FBFDD9A64E170E0E8
S113320080E090E00E943505D8CF62E081E00E9422
S113321029038111D2CF61E081E00E942903CDCF3F
S113322087B7837071F080B78770E9F781B792B779
S1133230891B8C3020F082B723E0853F18F022E010
S113324001C025E087B7887B31F580917D008B7FB5
S113325011F56E9920C0EAB180919A00E82BE871CB
S1133260D1F48091740082FD03C0379916C0E5E063
S113327095B72E1708F4E22FF0E0E457FF4FE491DE
S1133280937CE92BE062E5BF78948895F89485B740
S11332908F7D85BF95CFE0E0EBCFE1E0E9CFDB01A7
S11332A08F939F930E94B119BF91AF91A29F800DFC
S11332B0911DA39F900DB29F900D11240895991B09
S11332C079E004C0991F961708F0961B881F7A9519
S11332D0C9F780950895AA1BBB1B51E107C0AA1F1B
S11332E0BB1FA617B70710F0A61BB70B881F991FA3
S11332F05A95A9F780959095BC01CD010895A1E256
S11333001A2EAA1BBB1BFD010DC0AA1FBB1FEE1F5B
S1133310FF1FA217B307E407F50720F0A21BB30BA6
S1133320E40BF50B661F771F881F991F1A9469F722
S113333060957095809590959B01AC01BD01CF017E
S11333400895EE0FFF1F0024001C0BBE0790F6919A
S1133350E02D0994692796276927782787277827F6
S113336008950E94041AA59F900DB49F900DA49FE8
S1133370800D911D11240895E894DF93CF93FC01EF
S1133380DB010E94041A7F936F93E9019A01AC0157
S1133390BF93AF933F932F93DF010E94041A26F447
S11333A06C1B7D0B820B930B9E01EB01FC010E94B5
S11333B0131AAF91BF912F913F910E94131ABE012E
S11333C0CF01F9012F913F91CF91DF91089597FD9E
S11333D01094002E083098F00850232F342F452FD6
S11333E0562F672F782F892F912DF4CF1594979509
S11333F087957795679557954795379527950A95B6
S1133400AAF71124002D0895A29FB001B39FC00113
S1133410A39F700D811D1124911DB29F700D811DFC
S11334201124911D08950E94041A460F571FC81FA6
S1133430D91F08F4319608958F929F92AF92BF924C
S1133440CF92DF92EF92FF92CF93DF93EC016881EA
S113345079818A819B81611571058105910521F42A
S113346064E279ED8BE597E02DE133EF41E050E044
S11334700E94661E49015A019B01AC01A7EAB1E40E
S11334800E94B1196B017C01ACEEB4EFA50194016B
S11334900E94881EDC01CB018C0D9D1DAE1DBF1D3D
S11334A0B7FF03C00197A109B04888839983AA8311
S11334B0BB839F77DF91CF91FF90EF90DF90CF9008
S11334C0BF90AF909F908F9008950C941C1A8BE13D
S11334D091E00C941C1AB0E0A0E080931B0190933F
S11334E01C01A0931D01B0931E0108954F925F9299
S11334F06F927F928F929F92AF92BF92CF92DF9200
S1133500EF92FF920F931F93CF93DF935C016B01B4
S11335107A016115710519F0FB0191838083E1142F
S1133520F10449F0C7010297839728F060E070E046
S1133530CB0192C05E01E5011991812F90E00E94B8
S11335406E1B892BB9F71D3209F056C01881E501AD
S1133550229601E0E114F10409F4B3C0F0E1EF169E
S1133560F10409F093C0103341F488818F7D8835CC
S113357009F087C019812296026040E1E42EF12C03
S113358088248A94982CA82C5FE0B52E20E060E073
S113359070E0CB0127010F2C000C66087708E0EDE2
S11335A0E10FEA3058F03FEB310FE9EC3A3128F003
S11335B03FE9310F3A3198F5E9EAE10FEE151F04BE
S11335C074F52F3FB9F086169706A806B90628F1B8
S11335D0A30192010E944F192E2F30E050E040E0E9
S11335E0620F731F841F951F621773078407950763
S11335F0A0F021E01991D3CF1B3219F41881E50111
S1133600229600E0A7CF38E0E32EF12C88248A9498
S1133610982CA82C2FE1B22EB9CF2FEFEBCFC114E9
S1133620D10431F0222349F12197F601D183C083DB
S113363000FF07C090958095709561957F4F8F4FDF
S11336409F4F2F3F49F482E290E090939B04809334
S11336509A046FEF7FEFCB01DF91CF911F910F9110
S1133660FF90EF90DF90CF90BF90AF909F908F909E
S11336707F906F905F904F90089501FFD9CF22976C
S1133680D4CF10E3E114F10409F4BDCF8AE0E816C5
S1133690F104E9F0E0E1EE16F10409F46ECFF8E08C
S11336A0EF16F10409F4B2CF6FEF7FEFCB0197016E
S11336B00F2C000C440B550B0E947F1949015A0131
S11336C065CF103309F451CF9AE0E92EF12C89E942
S11336D0882E982CA82C89E1B82E58CF91110C94DF
S11336E0BF1D803219F089508550C8F70895FB0139
S11336F0DC0104C08D910190801921F441505040A7
S1133700C8F7881B990B0895DC0101C06D934150E3
S11337105040E0F70895CF93DF93CDB7DEB7AE0105
S11337204B5F5F4FFA0161917191AF0180919604F3
S1133730909197040E94CB1BDF91CF9108950F9332
S11337401F93CF93DF93E0919604F0919704238124
S113375010E000E021FD0EC00FEF1FEFC801DF9164
S1133760CF911F910F9108950995892B11F00FEFB7
S11337701FEFCE01EC01899160919604709197043A
S1133780DB011896ED91FC918111EECF8AE0099549
S1133790892B21F3E1CF2F923F924F925F926F9248
S11337A07F928F929F92AF92BF92CF92DF92EF92CD
S11337B0FF920F931F93CF93DF93CDB7DEB72B9771
S11337C00FB6F894DEBF0FBECDBF7C013B018A016A
S11337D0FC0117821682838181FFCEC19AE0292ED3
S11337E0CE0101965C01F7019381F30193FD85916C
S11337F093FF81913F01882309F446C1853239F44E
S113380093FD859193FF81913F01853229F4B7019E
S113381090E00E94D81DE7CF912C412C512CFFE160
S1133820F51538F08B3209F188F4803201F18332D6
S113383021F157FC3AC020ED280F2A3040F556FEFE
S11338401FC0929C200D1124922E06C08D3291F03F
S1133850803379F7689450F8F30193FD859193FFD1
S113386081913F018111DBCF20C0689451F86894A5
S113387052F8F2CF689453F8EFCF689454F8ECCF31
S1133880429C200D1124422E689455F8E5CF8E32C7
S113389029F456FCF9C0689456F8DECF8C3619F436
S11338A0689457F8D9CF8836B9F2982F9F7D9554EC
S11338B09330C0F08336A1F18337C1F1833509F029
S11338C05BC0F801C190D1908F01692D70E056FC66
S11338D002C06FEF7FEFC6010E94C21D4C016894C5
S11338E057F80AC00C5F1F4F2FE329838824839461
S11338F0912C6501E89457F853FC04C0481419044A
S113390009F018F5342C8114910431F5332009F4AD
S11339106ACFB70180E290E00E94D81D3A94F6CFB6
S1133920F801808189830E5F1F4FE0CFF801C190B9
S1133930D1908F01692D70E056FC02C06FEF7FEFCC
S1133940C6010E94CD1D4C01D5CFB70180E290E0A5
S11339500E94D81D4A94D2CFF60157FC859157FE98
S113396081916F01B70190E00E94D81D31103A9403
S1133970F1E08F1A9108C7CF843619F0893609F01F
S113398074C0F80157FE6AC061917191819191915F
S11339908F01252D2F76D22E97FF09C09095809503
S11339A0709561957F4F8F4F9F4F6894D7F82AE0A9
S11339B030E0A5010E94081EC82ECA188C2C5D2C6C
S11339C0D6FE0CC0E89450F8C91440F4D4FE05C0E7
S11339D0D2FC03C0FD2DFE7E5F2E892C54FEA4C0B4
S11339E0FE01EC0DF11D8081803309F096C0252D78
S11339F0297E522E852D8870382E53FCA4C050FE8B
S1133A009EC09C2C841418F44C0C942C981854FECE
S1133A10A0C0B70180E390E00E94D81D52FE09C007
S1133A2088E790E051FE02C088E590E0B7010E946B
S1133A30D81DC91408F499C0CA94D12C9FEFC91A8F
S1133A40D90ACA0CDB1CF60182916F01B70190E020
S1133A500E94D81DAC14BD04B1F758CF6191719187
S1133A60072E000C880B990B93CFD52CE894D4F82F
S1133A702AE030E08537E1F1952D997FD92E8F36F4
S1133A80A9F1F0F4883551F1F701868197812B96DD
S1133A900FB6F894DEBF0FBECDBFDF91CF911F915B
S1133AA00F91FF90EF90DF90CF90BF90AF909F90D9
S1133AB08F907F906F905F904F903F902F900895DC
S1133AC0803749F0883701F7D4FE02C06894D2F8F1
S1133AD020E130E00DC06894D4F8F6CF54FE03C062
S1133AE0E92FE660DE2E20E132E002C028E030E07B
S1133AF0F801D7FE0DC061917191819191918F016F
S1133B00A5010E94081EC82ECA18E894D7F856CFFB
S1133B106191719190E080E0F2CF52FC02C08394F5
S1133B2069CF8394839466CF852D867809F462CF18
S1133B30F6CFB70180E290E00E94D81D83948414EC
S1133B40C0F3312C64CF342C3818841408F45FCFBC
S1133B50F8CF852D867809F46CCF8BE251FE80E294
S1133B6057FC8DE2B70190E062CFB70180E390E0AB
S1133B700E94D81D9A945DCF8FEF9FEF88CF99272D
S1133B8088270895FC010590615070400110D8F712
S1133B90809590958E0F9F1F0895FC016150704091
S1133BA001900110D8F7809590958E0F9F1F08956E
S1133BB00F931F93CF93DF93182F092FEB018B8162
S1133BC081FD09C01FEF0FEF812F902FDF91CF915F
S1133BD01F910F91089582FF14C02E813F818C8123
S1133BE09D81281739073CF4E881F981CF010196BA
S1133BF09983888310838E819F8101969F838E830E
S1133C00E3CFE885F985812F0995892BA1F3DACFD4
S1133C10FA01AA27283051F1203181F1E8946F93F9
S1133C206E7F6E5F7F4F8F4F9F4FAF4FB1E03ED09F
S1133C30B4E03CD0670F781F891F9A1FA11D680F3D
S1133C40791F8A1F911DA11D6A0F711D811D911D70
S1133C50A11D20D009F468943F912AE0269F1124E5
S1133C603019305D3193DEF6CF010895462F477049
S1133C70405D4193B3E00FD0C9F7F6CF462F4F70A4
S1133C80405D4A3318F0495D31FD4052419302D002
S1133C90A9F7EACFB4E0A6959795879577956795A8
S1133CA0BA95C9F700976105710508959B01AC01A8
S1133CB00A2E06945795479537952795BA95C9F7CF
S1133CC0620F731F841F951FA01D0895052E97FB77
S1133CD01EF400940E947D1E57FD07D00E947F1998
S1133CE007FC03D04EF40C947D1E509540953095FE
S1133CF021953F4F4F4F5F4F089590958095709554
S1133D0061957F4F8F4F9F4F0895B7FF0C94B11962
S1133D100E94B119821B930B0895F894FFCFD20D22
S1133D202F0EB50E230F290F7B0F950F9A0FCB0F74
S10F3D307E109810AB107C129C12C11283
S1133D3C01FFFFFF220100FFFFFFFF000000020054
S1133D4C000000FA01000000000100010000005412
S1133D5C414B5320746573742031323334000000AA
S1133D6C9C020843616E6E6F742073656E640D0063
S1133D7C5374617274696E672074696D65722E2E4A
S1133D8C2E0D0052656365697665643A2000253012
S1133D9C32782000202D3E20282564292E204465CD
S1133DAC637279707465643A20003630333441366A
S1133DBC334234333436333345304632414335356C
S1133DCC3537393137373936343035343633423583
S1133DDC343130463237334438323738364443384A
S1133DEC3435443744313537383000354331364176
S1133DFC39384331383839424341344246394141E8
S1133E0C39433830343243443833413732394641FC
S1133E1C394234463731333834363638433739330C
S1133E2C4337423230373043333644003146353928
S1133E3C38433943383344383231334636313937E1
S1133E4C35413632314531303332304345344331E8
S1133E5C38324644433037413932433535303039C2
S1133E6C41343832303945363333303800394243F3
S1133E7C3731433443424434423236434539453571
S1133E8C4542433344443443373737464434324150
S1133E9C383137303343384445334537313742466C
S1113EAC35323030453632324541323932003B
S9030000FC
